{
  "_format": "hh-sol-artifact-1",
  "contractName": "IP_NFTContract",
  "sourceName": "contracts/IPNFTContract.sol",
  "abi": [
    {
      "inputs": [],
      "stateMutability": "nonpayable",
      "type": "constructor"
    },
    {
      "anonymous": false,
      "inputs": [
        {
          "indexed": true,
          "internalType": "address",
          "name": "owner",
          "type": "address"
        },
        {
          "indexed": true,
          "internalType": "address",
          "name": "approved",
          "type": "address"
        },
        {
          "indexed": true,
          "internalType": "uint256",
          "name": "tokenId",
          "type": "uint256"
        }
      ],
      "name": "Approval",
      "type": "event"
    },
    {
      "anonymous": false,
      "inputs": [
        {
          "indexed": true,
          "internalType": "address",
          "name": "owner",
          "type": "address"
        },
        {
          "indexed": true,
          "internalType": "address",
          "name": "operator",
          "type": "address"
        },
        {
          "indexed": false,
          "internalType": "bool",
          "name": "approved",
          "type": "bool"
        }
      ],
      "name": "ApprovalForAll",
      "type": "event"
    },
    {
      "anonymous": false,
      "inputs": [
        {
          "indexed": true,
          "internalType": "address",
          "name": "_minter",
          "type": "address"
        }
      ],
      "name": "NewMinter",
      "type": "event"
    },
    {
      "anonymous": false,
      "inputs": [
        {
          "indexed": true,
          "internalType": "uint256",
          "name": "tokenId",
          "type": "uint256"
        }
      ],
      "name": "NewToken",
      "type": "event"
    },
    {
      "anonymous": false,
      "inputs": [
        {
          "indexed": true,
          "internalType": "address",
          "name": "previousOwner",
          "type": "address"
        },
        {
          "indexed": true,
          "internalType": "address",
          "name": "newOwner",
          "type": "address"
        }
      ],
      "name": "OwnershipTransferred",
      "type": "event"
    },
    {
      "anonymous": false,
      "inputs": [
        {
          "indexed": true,
          "internalType": "address",
          "name": "_minter",
          "type": "address"
        }
      ],
      "name": "RevokedMinter",
      "type": "event"
    },
    {
      "anonymous": false,
      "inputs": [
        {
          "indexed": true,
          "internalType": "address",
          "name": "from",
          "type": "address"
        },
        {
          "indexed": true,
          "internalType": "address",
          "name": "to",
          "type": "address"
        },
        {
          "indexed": true,
          "internalType": "uint256",
          "name": "tokenId",
          "type": "uint256"
        }
      ],
      "name": "Transfer",
      "type": "event"
    },
    {
      "inputs": [
        {
          "internalType": "address",
          "name": "_userAddress",
          "type": "address"
        }
      ],
      "name": "addToBrightlist",
      "outputs": [],
      "stateMutability": "nonpayable",
      "type": "function"
    },
    {
      "inputs": [
        {
          "internalType": "address",
          "name": "to",
          "type": "address"
        },
        {
          "internalType": "uint256",
          "name": "tokenId",
          "type": "uint256"
        }
      ],
      "name": "approve",
      "outputs": [],
      "stateMutability": "nonpayable",
      "type": "function"
    },
    {
      "inputs": [
        {
          "internalType": "address",
          "name": "owner",
          "type": "address"
        }
      ],
      "name": "balanceOf",
      "outputs": [
        {
          "internalType": "uint256",
          "name": "",
          "type": "uint256"
        }
      ],
      "stateMutability": "view",
      "type": "function"
    },
    {
      "inputs": [
        {
          "internalType": "address",
          "name": "",
          "type": "address"
        }
      ],
      "name": "brightlist",
      "outputs": [
        {
          "internalType": "bool",
          "name": "",
          "type": "bool"
        }
      ],
      "stateMutability": "view",
      "type": "function"
    },
    {
      "inputs": [
        {
          "internalType": "uint256",
          "name": "",
          "type": "uint256"
        }
      ],
      "name": "contractData",
      "outputs": [
        {
          "internalType": "string",
          "name": "contractData",
          "type": "string"
        },
        {
          "internalType": "string",
          "name": "description",
          "type": "string"
        },
        {
          "internalType": "string",
          "name": "name",
          "type": "string"
        }
      ],
      "stateMutability": "view",
      "type": "function"
    },
    {
      "inputs": [
        {
          "internalType": "uint256",
          "name": "tokenId",
          "type": "uint256"
        }
      ],
      "name": "getApproved",
      "outputs": [
        {
          "internalType": "address",
          "name": "",
          "type": "address"
        }
      ],
      "stateMutability": "view",
      "type": "function"
    },
    {
      "inputs": [
        {
          "internalType": "address",
          "name": "owner",
          "type": "address"
        },
        {
          "internalType": "address",
          "name": "operator",
          "type": "address"
        }
      ],
      "name": "isApprovedForAll",
      "outputs": [
        {
          "internalType": "bool",
          "name": "",
          "type": "bool"
        }
      ],
      "stateMutability": "view",
      "type": "function"
    },
    {
      "inputs": [],
      "name": "name",
      "outputs": [
        {
          "internalType": "string",
          "name": "",
          "type": "string"
        }
      ],
      "stateMutability": "view",
      "type": "function"
    },
    {
      "inputs": [],
      "name": "owner",
      "outputs": [
        {
          "internalType": "address",
          "name": "",
          "type": "address"
        }
      ],
      "stateMutability": "view",
      "type": "function"
    },
    {
      "inputs": [
        {
          "internalType": "uint256",
          "name": "tokenId",
          "type": "uint256"
        }
      ],
      "name": "ownerOf",
      "outputs": [
        {
          "internalType": "address",
          "name": "",
          "type": "address"
        }
      ],
      "stateMutability": "view",
      "type": "function"
    },
    {
      "inputs": [
        {
          "internalType": "address",
          "name": "_userAddress",
          "type": "address"
        }
      ],
      "name": "removeFrombrightlist",
      "outputs": [],
      "stateMutability": "nonpayable",
      "type": "function"
    },
    {
      "inputs": [],
      "name": "renounceOwnership",
      "outputs": [],
      "stateMutability": "nonpayable",
      "type": "function"
    },
    {
      "inputs": [
        {
          "internalType": "address",
          "name": "_to",
          "type": "address"
        },
        {
          "internalType": "string",
          "name": "uri",
          "type": "string"
        }
      ],
      "name": "safeMint",
      "outputs": [],
      "stateMutability": "nonpayable",
      "type": "function"
    },
    {
      "inputs": [
        {
          "internalType": "address",
          "name": "from",
          "type": "address"
        },
        {
          "internalType": "address",
          "name": "to",
          "type": "address"
        },
        {
          "internalType": "uint256",
          "name": "tokenId",
          "type": "uint256"
        }
      ],
      "name": "safeTransferFrom",
      "outputs": [],
      "stateMutability": "nonpayable",
      "type": "function"
    },
    {
      "inputs": [
        {
          "internalType": "address",
          "name": "from",
          "type": "address"
        },
        {
          "internalType": "address",
          "name": "to",
          "type": "address"
        },
        {
          "internalType": "uint256",
          "name": "tokenId",
          "type": "uint256"
        },
        {
          "internalType": "bytes",
          "name": "data",
          "type": "bytes"
        }
      ],
      "name": "safeTransferFrom",
      "outputs": [],
      "stateMutability": "nonpayable",
      "type": "function"
    },
    {
      "inputs": [
        {
          "internalType": "address",
          "name": "operator",
          "type": "address"
        },
        {
          "internalType": "bool",
          "name": "approved",
          "type": "bool"
        }
      ],
      "name": "setApprovalForAll",
      "outputs": [],
      "stateMutability": "nonpayable",
      "type": "function"
    },
    {
      "inputs": [
        {
          "internalType": "bytes4",
          "name": "interfaceId",
          "type": "bytes4"
        }
      ],
      "name": "supportsInterface",
      "outputs": [
        {
          "internalType": "bool",
          "name": "",
          "type": "bool"
        }
      ],
      "stateMutability": "view",
      "type": "function"
    },
    {
      "inputs": [],
      "name": "symbol",
      "outputs": [
        {
          "internalType": "string",
          "name": "",
          "type": "string"
        }
      ],
      "stateMutability": "view",
      "type": "function"
    },
    {
      "inputs": [
        {
          "internalType": "uint256",
          "name": "tokenId",
          "type": "uint256"
        }
      ],
      "name": "tokenURI",
      "outputs": [
        {
          "internalType": "string",
          "name": "",
          "type": "string"
        }
      ],
      "stateMutability": "view",
      "type": "function"
    },
    {
      "inputs": [
        {
          "internalType": "address",
          "name": "from",
          "type": "address"
        },
        {
          "internalType": "address",
          "name": "to",
          "type": "address"
        },
        {
          "internalType": "uint256",
          "name": "tokenId",
          "type": "uint256"
        }
      ],
      "name": "transferFrom",
      "outputs": [],
      "stateMutability": "nonpayable",
      "type": "function"
    },
    {
      "inputs": [
        {
          "internalType": "address",
          "name": "newOwner",
          "type": "address"
        }
      ],
      "name": "transferOwnership",
      "outputs": [],
      "stateMutability": "nonpayable",
      "type": "function"
    }
  ],
  "bytecode": "0x60806040523480156200001157600080fd5b506040518060400160405280600e81526020017f49505f4e4654436f6e74726163740000000000000000000000000000000000008152506040518060400160405280600681526020017f49502d4e465400000000000000000000000000000000000000000000000000008152506200009e62000092620000d860201b60201c565b620000e060201b60201c565b8160019080519060200190620000b6929190620001a4565b508060029080519060200190620000cf929190620001a4565b505050620002b9565b600033905090565b60008060009054906101000a900473ffffffffffffffffffffffffffffffffffffffff169050816000806101000a81548173ffffffffffffffffffffffffffffffffffffffff021916908373ffffffffffffffffffffffffffffffffffffffff1602179055508173ffffffffffffffffffffffffffffffffffffffff168173ffffffffffffffffffffffffffffffffffffffff167f8be0079c531659141344cd1fd0a4f28419497f9722a3daafe3b4186f6b6457e060405160405180910390a35050565b828054620001b29062000283565b90600052602060002090601f016020900481019282620001d6576000855562000222565b82601f10620001f157805160ff191683800117855562000222565b8280016001018555821562000222579182015b828111156200022157825182559160200191906001019062000204565b5b50905062000231919062000235565b5090565b5b808211156200025057600081600090555060010162000236565b5090565b7f4e487b7100000000000000000000000000000000000000000000000000000000600052602260045260246000fd5b600060028204905060018216806200029c57607f821691505b60208210811415620002b357620002b262000254565b5b50919050565b61358680620002c96000396000f3fe608060405234801561001057600080fd5b50600436106101375760003560e01c8063715018a6116100b8578063b88d4fde1161007c578063b88d4fde1461034e578063c87b56dd1461036a578063d204c45e1461039a578063e985e9c5146103b6578063f2fde38b146103e6578063fe8579341461040257610137565b8063715018a6146102d05780638da5cb5b146102da57806395d89b41146102f8578063a22cb46514610316578063ace910321461033257610137565b806333812e7b116100ff57806333812e7b146101f257806342842e0e1461022457806343c9be50146102405780636352211e1461027057806370a08231146102a057610137565b806301ffc9a71461013c57806306fdde031461016c578063081812fc1461018a578063095ea7b3146101ba57806323b872dd146101d6575b600080fd5b610156600480360381019061015191906121d8565b61041e565b6040516101639190612220565b60405180910390f35b610174610500565b60405161018191906122d4565b60405180910390f35b6101a4600480360381019061019f919061232c565b610592565b6040516101b1919061239a565b60405180910390f35b6101d460048036038101906101cf91906123e1565b6105d8565b005b6101f060048036038101906101eb9190612421565b6106f0565b005b61020c6004803603810190610207919061232c565b610750565b60405161021b93929190612474565b60405180910390f35b61023e60048036038101906102399190612421565b610912565b005b61025a600480360381019061025591906124c0565b610932565b6040516102679190612220565b60405180910390f35b61028a6004803603810190610285919061232c565b610952565b604051610297919061239a565b60405180910390f35b6102ba60048036038101906102b591906124c0565b6109d9565b6040516102c791906124fc565b60405180910390f35b6102d8610a91565b005b6102e2610aa5565b6040516102ef919061239a565b60405180910390f35b610300610ace565b60405161030d91906122d4565b60405180910390f35b610330600480360381019061032b9190612543565b610b60565b005b61034c600480360381019061034791906124c0565b610b76565b005b610368600480360381019061036391906126b8565b610bd0565b005b610384600480360381019061037f919061232c565b610c32565b60405161039191906122d4565b60405180910390f35b6103b460048036038101906103af91906127dc565b610e7a565b005b6103d060048036038101906103cb9190612838565b610f47565b6040516103dd9190612220565b60405180910390f35b61040060048036038101906103fb91906124c0565b610fdb565b005b61041c600480360381019061041791906124c0565b61105f565b005b60007f80ac58cd000000000000000000000000000000000000000000000000000000007bffffffffffffffffffffffffffffffffffffffffffffffffffffffff1916827bffffffffffffffffffffffffffffffffffffffffffffffffffffffff191614806104e957507f5b5e139f000000000000000000000000000000000000000000000000000000007bffffffffffffffffffffffffffffffffffffffffffffffffffffffff1916827bffffffffffffffffffffffffffffffffffffffffffffffffffffffff1916145b806104f957506104f8826110c2565b5b9050919050565b60606001805461050f906128a7565b80601f016020809104026020016040519081016040528092919081815260200182805461053b906128a7565b80156105885780601f1061055d57610100808354040283529160200191610588565b820191906000526020600020905b81548152906001019060200180831161056b57829003601f168201915b5050505050905090565b600061059d8261112c565b6005600083815260200190815260200160002060009054906101000a900473ffffffffffffffffffffffffffffffffffffffff169050919050565b60006105e382610952565b90508073ffffffffffffffffffffffffffffffffffffffff168373ffffffffffffffffffffffffffffffffffffffff161415610654576040517f08c379a000000000000000000000000000000000000000000000000000000000815260040161064b9061294b565b60405180910390fd5b8073ffffffffffffffffffffffffffffffffffffffff16610673611177565b73ffffffffffffffffffffffffffffffffffffffff1614806106a257506106a18161069c611177565b610f47565b5b6106e1576040517f08c379a00000000000000000000000000000000000000000000000000000000081526004016106d8906129dd565b60405180910390fd5b6106eb838361117f565b505050565b6107016106fb611177565b82611238565b610740576040517f08c379a000000000000000000000000000000000000000000000000000000000815260040161073790612a6f565b60405180910390fd5b61074b8383836112cd565b505050565b600a602052806000526040600020600091509050806000018054610773906128a7565b80601f016020809104026020016040519081016040528092919081815260200182805461079f906128a7565b80156107ec5780601f106107c1576101008083540402835291602001916107ec565b820191906000526020600020905b8154815290600101906020018083116107cf57829003601f168201915b505050505090806001018054610801906128a7565b80601f016020809104026020016040519081016040528092919081815260200182805461082d906128a7565b801561087a5780601f1061084f5761010080835404028352916020019161087a565b820191906000526020600020905b81548152906001019060200180831161085d57829003601f168201915b50505050509080600201805461088f906128a7565b80601f01602080910402602001604051908101604052809291908181526020018280546108bb906128a7565b80156109085780601f106108dd57610100808354040283529160200191610908565b820191906000526020600020905b8154815290600101906020018083116108eb57829003601f168201915b5050505050905083565b61092d83838360405180602001604052806000815250610bd0565b505050565b60096020528060005260406000206000915054906101000a900460ff1681565b60008061095e836115c7565b9050600073ffffffffffffffffffffffffffffffffffffffff168173ffffffffffffffffffffffffffffffffffffffff1614156109d0576040517f08c379a00000000000000000000000000000000000000000000000000000000081526004016109c790612adb565b60405180910390fd5b80915050919050565b60008073ffffffffffffffffffffffffffffffffffffffff168273ffffffffffffffffffffffffffffffffffffffff161415610a4a576040517f08c379a0000000000000000000000000000000000000000000000000000000008152600401610a4190612b6d565b60405180910390fd5b600460008373ffffffffffffffffffffffffffffffffffffffff1673ffffffffffffffffffffffffffffffffffffffff168152602001908152602001600020549050919050565b610a99611604565b610aa36000611682565b565b60008060009054906101000a900473ffffffffffffffffffffffffffffffffffffffff16905090565b606060028054610add906128a7565b80601f0160208091040260200160405190810160405280929190818152602001828054610b09906128a7565b8015610b565780601f10610b2b57610100808354040283529160200191610b56565b820191906000526020600020905b815481529060010190602001808311610b3957829003601f168201915b5050505050905090565b610b72610b6b611177565b8383611746565b5050565b610b7e611604565b600960008273ffffffffffffffffffffffffffffffffffffffff1673ffffffffffffffffffffffffffffffffffffffff16815260200190815260200160002060006101000a81549060ff021916905550565b610be1610bdb611177565b83611238565b610c20576040517f08c379a0000000000000000000000000000000000000000000000000000000008152600401610c1790612a6f565b60405180910390fd5b610c2c848484846118b3565b50505050565b6060610c3d8261112c565b6000600a6000848152602001908152602001600020604051806060016040529081600082018054610c6d906128a7565b80601f0160208091040260200160405190810160405280929190818152602001828054610c99906128a7565b8015610ce65780601f10610cbb57610100808354040283529160200191610ce6565b820191906000526020600020905b815481529060010190602001808311610cc957829003601f168201915b50505050508152602001600182018054610cff906128a7565b80601f0160208091040260200160405190810160405280929190818152602001828054610d2b906128a7565b8015610d785780601f10610d4d57610100808354040283529160200191610d78565b820191906000526020600020905b815481529060010190602001808311610d5b57829003601f168201915b50505050508152602001600282018054610d91906128a7565b80601f0160208091040260200160405190810160405280929190818152602001828054610dbd906128a7565b8015610e0a5780601f10610ddf57610100808354040283529160200191610e0a565b820191906000526020600020905b815481529060010190602001808311610ded57829003601f168201915b50505050508152505090506000610e4f826040015183602001518460000151604051602001610e3b93929190612cf9565b60405160208183030381529060405261190f565b905080604051602001610e629190612da2565b60405160208183030381529060405292505050919050565b60096000610e86611177565b73ffffffffffffffffffffffffffffffffffffffff1673ffffffffffffffffffffffffffffffffffffffff16815260200190815260200160002060009054906101000a900460ff16610f0d576040517f08c379a0000000000000000000000000000000000000000000000000000000008152600401610f0490612e10565b60405180910390fd5b6000610f196008611a73565b9050610f256008611a81565b610f2e83610b76565b610f388382611a97565b610f428183611ab5565b505050565b6000600660008473ffffffffffffffffffffffffffffffffffffffff1673ffffffffffffffffffffffffffffffffffffffff16815260200190815260200160002060008373ffffffffffffffffffffffffffffffffffffffff1673ffffffffffffffffffffffffffffffffffffffff16815260200190815260200160002060009054906101000a900460ff16905092915050565b610fe3611604565b600073ffffffffffffffffffffffffffffffffffffffff168173ffffffffffffffffffffffffffffffffffffffff161415611053576040517f08c379a000000000000000000000000000000000000000000000000000000000815260040161104a90612ea2565b60405180910390fd5b61105c81611682565b50565b611067611604565b6001600960008373ffffffffffffffffffffffffffffffffffffffff1673ffffffffffffffffffffffffffffffffffffffff16815260200190815260200160002060006101000a81548160ff02191690831515021790555050565b60007f01ffc9a7000000000000000000000000000000000000000000000000000000007bffffffffffffffffffffffffffffffffffffffffffffffffffffffff1916827bffffffffffffffffffffffffffffffffffffffffffffffffffffffff1916149050919050565b61113581611b29565b611174576040517f08c379a000000000000000000000000000000000000000000000000000000000815260040161116b90612adb565b60405180910390fd5b50565b600033905090565b816005600083815260200190815260200160002060006101000a81548173ffffffffffffffffffffffffffffffffffffffff021916908373ffffffffffffffffffffffffffffffffffffffff160217905550808273ffffffffffffffffffffffffffffffffffffffff166111f283610952565b73ffffffffffffffffffffffffffffffffffffffff167f8c5be1e5ebec7d5bd14f71427d1e84f3dd0314c0f7b2291e5b200ac8c7c3b92560405160405180910390a45050565b60008061124483610952565b90508073ffffffffffffffffffffffffffffffffffffffff168473ffffffffffffffffffffffffffffffffffffffff16148061128657506112858185610f47565b5b806112c457508373ffffffffffffffffffffffffffffffffffffffff166112ac84610592565b73ffffffffffffffffffffffffffffffffffffffff16145b91505092915050565b8273ffffffffffffffffffffffffffffffffffffffff166112ed82610952565b73ffffffffffffffffffffffffffffffffffffffff1614611343576040517f08c379a000000000000000000000000000000000000000000000000000000000815260040161133a90612f34565b60405180910390fd5b600073ffffffffffffffffffffffffffffffffffffffff168273ffffffffffffffffffffffffffffffffffffffff1614156113b3576040517f08c379a00000000000000000000000000000000000000000000000000000000081526004016113aa90612fc6565b60405180910390fd5b6113c08383836001611b6a565b8273ffffffffffffffffffffffffffffffffffffffff166113e082610952565b73ffffffffffffffffffffffffffffffffffffffff1614611436576040517f08c379a000000000000000000000000000000000000000000000000000000000815260040161142d90612f34565b60405180910390fd5b6005600082815260200190815260200160002060006101000a81549073ffffffffffffffffffffffffffffffffffffffff02191690556001600460008573ffffffffffffffffffffffffffffffffffffffff1673ffffffffffffffffffffffffffffffffffffffff168152602001908152602001600020600082825403925050819055506001600460008473ffffffffffffffffffffffffffffffffffffffff1673ffffffffffffffffffffffffffffffffffffffff16815260200190815260200160002060008282540192505081905550816003600083815260200190815260200160002060006101000a81548173ffffffffffffffffffffffffffffffffffffffff021916908373ffffffffffffffffffffffffffffffffffffffff160217905550808273ffffffffffffffffffffffffffffffffffffffff168473ffffffffffffffffffffffffffffffffffffffff167fddf252ad1be2c89b69c2b068fc378daa952ba7f163c4a11628f55a4df523b3ef60405160405180910390a46115c28383836001611c90565b505050565b60006003600083815260200190815260200160002060009054906101000a900473ffffffffffffffffffffffffffffffffffffffff169050919050565b61160c611177565b73ffffffffffffffffffffffffffffffffffffffff1661162a610aa5565b73ffffffffffffffffffffffffffffffffffffffff1614611680576040517f08c379a000000000000000000000000000000000000000000000000000000000815260040161167790613032565b60405180910390fd5b565b60008060009054906101000a900473ffffffffffffffffffffffffffffffffffffffff169050816000806101000a81548173ffffffffffffffffffffffffffffffffffffffff021916908373ffffffffffffffffffffffffffffffffffffffff1602179055508173ffffffffffffffffffffffffffffffffffffffff168173ffffffffffffffffffffffffffffffffffffffff167f8be0079c531659141344cd1fd0a4f28419497f9722a3daafe3b4186f6b6457e060405160405180910390a35050565b8173ffffffffffffffffffffffffffffffffffffffff168373ffffffffffffffffffffffffffffffffffffffff1614156117b5576040517f08c379a00000000000000000000000000000000000000000000000000000000081526004016117ac9061309e565b60405180910390fd5b80600660008573ffffffffffffffffffffffffffffffffffffffff1673ffffffffffffffffffffffffffffffffffffffff16815260200190815260200160002060008473ffffffffffffffffffffffffffffffffffffffff1673ffffffffffffffffffffffffffffffffffffffff16815260200190815260200160002060006101000a81548160ff0219169083151502179055508173ffffffffffffffffffffffffffffffffffffffff168373ffffffffffffffffffffffffffffffffffffffff167f17307eab39ab6107e8899845ad3d59bd9653f200f220920489ca2b5937696c31836040516118a69190612220565b60405180910390a3505050565b6118be8484846112cd565b6118ca84848484611c96565b611909576040517f08c379a000000000000000000000000000000000000000000000000000000000815260040161190090613130565b60405180910390fd5b50505050565b606060008251141561193257604051806020016040528060008152509050611a6e565b60006040518060600160405280604081526020016135116040913990506000600360028551611961919061317f565b61196b9190613204565b60046119779190613235565b67ffffffffffffffff8111156119905761198f61258d565b5b6040519080825280601f01601f1916602001820160405280156119c25781602001600182028036833780820191505090505b509050600182016020820185865187015b80821015611a2e576003820191508151603f8160121c168501518453600184019350603f81600c1c168501518453600184019350603f8160061c168501518453600184019350603f81168501518453600184019350506119d3565b5050600386510660018114611a4a5760028114611a5d57611a65565b603d6001830353603d6002830353611a65565b603d60018303535b50505080925050505b919050565b600081600001549050919050565b6001816000016000828254019250508190555050565b611ab1828260405180602001604052806000815250611e2d565b5050565b611abe82611b29565b611afd576040517f08c379a0000000000000000000000000000000000000000000000000000000008152600401611af490613301565b60405180910390fd5b80600760008481526020019081526020016000209080519060200190611b249291906120c9565b505050565b60008073ffffffffffffffffffffffffffffffffffffffff16611b4b836115c7565b73ffffffffffffffffffffffffffffffffffffffff1614159050919050565b6001811115611c8a57600073ffffffffffffffffffffffffffffffffffffffff168473ffffffffffffffffffffffffffffffffffffffff1614611bfe5780600460008673ffffffffffffffffffffffffffffffffffffffff1673ffffffffffffffffffffffffffffffffffffffff1681526020019081526020016000206000828254611bf69190613321565b925050819055505b600073ffffffffffffffffffffffffffffffffffffffff168373ffffffffffffffffffffffffffffffffffffffff1614611c895780600460008573ffffffffffffffffffffffffffffffffffffffff1673ffffffffffffffffffffffffffffffffffffffff1681526020019081526020016000206000828254611c81919061317f565b925050819055505b5b50505050565b50505050565b6000611cb78473ffffffffffffffffffffffffffffffffffffffff16611e88565b15611e20578373ffffffffffffffffffffffffffffffffffffffff1663150b7a02611ce0611177565b8786866040518563ffffffff1660e01b8152600401611d0294939291906133aa565b602060405180830381600087803b158015611d1c57600080fd5b505af1925050508015611d4d57506040513d601f19601f82011682018060405250810190611d4a919061340b565b60015b611dd0573d8060008114611d7d576040519150601f19603f3d011682016040523d82523d6000602084013e611d82565b606091505b50600081511415611dc8576040517f08c379a0000000000000000000000000000000000000000000000000000000008152600401611dbf90613130565b60405180910390fd5b805181602001fd5b63150b7a0260e01b7bffffffffffffffffffffffffffffffffffffffffffffffffffffffff1916817bffffffffffffffffffffffffffffffffffffffffffffffffffffffff191614915050611e25565b600190505b949350505050565b611e378383611eab565b611e446000848484611c96565b611e83576040517f08c379a0000000000000000000000000000000000000000000000000000000008152600401611e7a90613130565b60405180910390fd5b505050565b6000808273ffffffffffffffffffffffffffffffffffffffff163b119050919050565b600073ffffffffffffffffffffffffffffffffffffffff168273ffffffffffffffffffffffffffffffffffffffff161415611f1b576040517f08c379a0000000000000000000000000000000000000000000000000000000008152600401611f1290613484565b60405180910390fd5b611f2481611b29565b15611f64576040517f08c379a0000000000000000000000000000000000000000000000000000000008152600401611f5b906134f0565b60405180910390fd5b611f72600083836001611b6a565b611f7b81611b29565b15611fbb576040517f08c379a0000000000000000000000000000000000000000000000000000000008152600401611fb2906134f0565b60405180910390fd5b6001600460008473ffffffffffffffffffffffffffffffffffffffff1673ffffffffffffffffffffffffffffffffffffffff16815260200190815260200160002060008282540192505081905550816003600083815260200190815260200160002060006101000a81548173ffffffffffffffffffffffffffffffffffffffff021916908373ffffffffffffffffffffffffffffffffffffffff160217905550808273ffffffffffffffffffffffffffffffffffffffff16600073ffffffffffffffffffffffffffffffffffffffff167fddf252ad1be2c89b69c2b068fc378daa952ba7f163c4a11628f55a4df523b3ef60405160405180910390a46120c5600083836001611c90565b5050565b8280546120d5906128a7565b90600052602060002090601f0160209004810192826120f7576000855561213e565b82601f1061211057805160ff191683800117855561213e565b8280016001018555821561213e579182015b8281111561213d578251825591602001919060010190612122565b5b50905061214b919061214f565b5090565b5b80821115612168576000816000905550600101612150565b5090565b6000604051905090565b600080fd5b600080fd5b60007fffffffff0000000000000000000000000000000000000000000000000000000082169050919050565b6121b581612180565b81146121c057600080fd5b50565b6000813590506121d2816121ac565b92915050565b6000602082840312156121ee576121ed612176565b5b60006121fc848285016121c3565b91505092915050565b60008115159050919050565b61221a81612205565b82525050565b60006020820190506122356000830184612211565b92915050565b600081519050919050565b600082825260208201905092915050565b60005b8381101561227557808201518184015260208101905061225a565b83811115612284576000848401525b50505050565b6000601f19601f8301169050919050565b60006122a68261223b565b6122b08185612246565b93506122c0818560208601612257565b6122c98161228a565b840191505092915050565b600060208201905081810360008301526122ee818461229b565b905092915050565b6000819050919050565b612309816122f6565b811461231457600080fd5b50565b60008135905061232681612300565b92915050565b60006020828403121561234257612341612176565b5b600061235084828501612317565b91505092915050565b600073ffffffffffffffffffffffffffffffffffffffff82169050919050565b600061238482612359565b9050919050565b61239481612379565b82525050565b60006020820190506123af600083018461238b565b92915050565b6123be81612379565b81146123c957600080fd5b50565b6000813590506123db816123b5565b92915050565b600080604083850312156123f8576123f7612176565b5b6000612406858286016123cc565b925050602061241785828601612317565b9150509250929050565b60008060006060848603121561243a57612439612176565b5b6000612448868287016123cc565b9350506020612459868287016123cc565b925050604061246a86828701612317565b9150509250925092565b6000606082019050818103600083015261248e818661229b565b905081810360208301526124a2818561229b565b905081810360408301526124b6818461229b565b9050949350505050565b6000602082840312156124d6576124d5612176565b5b60006124e4848285016123cc565b91505092915050565b6124f6816122f6565b82525050565b600060208201905061251160008301846124ed565b92915050565b61252081612205565b811461252b57600080fd5b50565b60008135905061253d81612517565b92915050565b6000806040838503121561255a57612559612176565b5b6000612568858286016123cc565b92505060206125798582860161252e565b9150509250929050565b600080fd5b600080fd5b7f4e487b7100000000000000000000000000000000000000000000000000000000600052604160045260246000fd5b6125c58261228a565b810181811067ffffffffffffffff821117156125e4576125e361258d565b5b80604052505050565b60006125f761216c565b905061260382826125bc565b919050565b600067ffffffffffffffff8211156126235761262261258d565b5b61262c8261228a565b9050602081019050919050565b82818337600083830152505050565b600061265b61265684612608565b6125ed565b90508281526020810184848401111561267757612676612588565b5b612682848285612639565b509392505050565b600082601f83011261269f5761269e612583565b5b81356126af848260208601612648565b91505092915050565b600080600080608085870312156126d2576126d1612176565b5b60006126e0878288016123cc565b94505060206126f1878288016123cc565b935050604061270287828801612317565b925050606085013567ffffffffffffffff8111156127235761272261217b565b5b61272f8782880161268a565b91505092959194509250565b600067ffffffffffffffff8211156127565761275561258d565b5b61275f8261228a565b9050602081019050919050565b600061277f61277a8461273b565b6125ed565b90508281526020810184848401111561279b5761279a612588565b5b6127a6848285612639565b509392505050565b600082601f8301126127c3576127c2612583565b5b81356127d384826020860161276c565b91505092915050565b600080604083850312156127f3576127f2612176565b5b6000612801858286016123cc565b925050602083013567ffffffffffffffff8111156128225761282161217b565b5b61282e858286016127ae565b9150509250929050565b6000806040838503121561284f5761284e612176565b5b600061285d858286016123cc565b925050602061286e858286016123cc565b9150509250929050565b7f4e487b7100000000000000000000000000000000000000000000000000000000600052602260045260246000fd5b600060028204905060018216806128bf57607f821691505b602082108114156128d3576128d2612878565b5b50919050565b7f4552433732313a20617070726f76616c20746f2063757272656e74206f776e6560008201527f7200000000000000000000000000000000000000000000000000000000000000602082015250565b6000612935602183612246565b9150612940826128d9565b604082019050919050565b6000602082019050818103600083015261296481612928565b9050919050565b7f4552433732313a20617070726f76652063616c6c6572206973206e6f7420746f60008201527f6b656e206f776e6572206f7220617070726f76656420666f7220616c6c000000602082015250565b60006129c7603d83612246565b91506129d28261296b565b604082019050919050565b600060208201905081810360008301526129f6816129ba565b9050919050565b7f4552433732313a2063616c6c6572206973206e6f7420746f6b656e206f776e6560008201527f72206f7220617070726f76656400000000000000000000000000000000000000602082015250565b6000612a59602d83612246565b9150612a64826129fd565b604082019050919050565b60006020820190508181036000830152612a8881612a4c565b9050919050565b7f4552433732313a20696e76616c696420746f6b656e2049440000000000000000600082015250565b6000612ac5601883612246565b9150612ad082612a8f565b602082019050919050565b60006020820190508181036000830152612af481612ab8565b9050919050565b7f4552433732313a2061646472657373207a65726f206973206e6f74206120766160008201527f6c6964206f776e65720000000000000000000000000000000000000000000000602082015250565b6000612b57602983612246565b9150612b6282612afb565b604082019050919050565b60006020820190508181036000830152612b8681612b4a565b9050919050565b600081905092915050565b7f7b226e616d65223a000000000000000000000000000000000000000000000000600082015250565b6000612bce600883612b8d565b9150612bd982612b98565b600882019050919050565b6000612bef8261223b565b612bf98185612b8d565b9350612c09818560208601612257565b80840191505092915050565b7f226465736372697074696f6e223a000000000000000000000000000000000000600082015250565b6000612c4b600e83612b8d565b9150612c5682612c15565b600e82019050919050565b7f22636f6e747261637444617461223a0000000000000000000000000000000000600082015250565b6000612c97600f83612b8d565b9150612ca282612c61565b600f82019050919050565b7f227d000000000000000000000000000000000000000000000000000000000000600082015250565b6000612ce3600283612b8d565b9150612cee82612cad565b600282019050919050565b6000612d0482612bc1565b9150612d108286612be4565b9150612d1b82612c3e565b9150612d278285612be4565b9150612d3282612c8a565b9150612d3e8284612be4565b9150612d4982612cd6565b9150819050949350505050565b7f646174613a6170706c69636174696f6e2f6a736f6e3b6261736536342c000000600082015250565b6000612d8c601d83612b8d565b9150612d9782612d56565b601d82019050919050565b6000612dad82612d7f565b9150612db98284612be4565b915081905092915050565b7f4e4f545f494e5f57484954454c49535400000000000000000000000000000000600082015250565b6000612dfa601083612246565b9150612e0582612dc4565b602082019050919050565b60006020820190508181036000830152612e2981612ded565b9050919050565b7f4f776e61626c653a206e6577206f776e657220697320746865207a65726f206160008201527f6464726573730000000000000000000000000000000000000000000000000000602082015250565b6000612e8c602683612246565b9150612e9782612e30565b604082019050919050565b60006020820190508181036000830152612ebb81612e7f565b9050919050565b7f4552433732313a207472616e736665722066726f6d20696e636f72726563742060008201527f6f776e6572000000000000000000000000000000000000000000000000000000602082015250565b6000612f1e602583612246565b9150612f2982612ec2565b604082019050919050565b60006020820190508181036000830152612f4d81612f11565b9050919050565b7f4552433732313a207472616e7366657220746f20746865207a65726f2061646460008201527f7265737300000000000000000000000000000000000000000000000000000000602082015250565b6000612fb0602483612246565b9150612fbb82612f54565b604082019050919050565b60006020820190508181036000830152612fdf81612fa3565b9050919050565b7f4f776e61626c653a2063616c6c6572206973206e6f7420746865206f776e6572600082015250565b600061301c602083612246565b915061302782612fe6565b602082019050919050565b6000602082019050818103600083015261304b8161300f565b9050919050565b7f4552433732313a20617070726f766520746f2063616c6c657200000000000000600082015250565b6000613088601983612246565b915061309382613052565b602082019050919050565b600060208201905081810360008301526130b78161307b565b9050919050565b7f4552433732313a207472616e7366657220746f206e6f6e20455243373231526560008201527f63656976657220696d706c656d656e7465720000000000000000000000000000602082015250565b600061311a603283612246565b9150613125826130be565b604082019050919050565b600060208201905081810360008301526131498161310d565b9050919050565b7f4e487b7100000000000000000000000000000000000000000000000000000000600052601160045260246000fd5b600061318a826122f6565b9150613195836122f6565b9250827fffffffffffffffffffffffffffffffffffffffffffffffffffffffffffffffff038211156131ca576131c9613150565b5b828201905092915050565b7f4e487b7100000000000000000000000000000000000000000000000000000000600052601260045260246000fd5b600061320f826122f6565b915061321a836122f6565b92508261322a576132296131d5565b5b828204905092915050565b6000613240826122f6565b915061324b836122f6565b9250817fffffffffffffffffffffffffffffffffffffffffffffffffffffffffffffffff048311821515161561328457613283613150565b5b828202905092915050565b7f45524337323155524953746f726167653a2055524920736574206f66206e6f6e60008201527f6578697374656e7420746f6b656e000000000000000000000000000000000000602082015250565b60006132eb602e83612246565b91506132f68261328f565b604082019050919050565b6000602082019050818103600083015261331a816132de565b9050919050565b600061332c826122f6565b9150613337836122f6565b92508282101561334a57613349613150565b5b828203905092915050565b600081519050919050565b600082825260208201905092915050565b600061337c82613355565b6133868185613360565b9350613396818560208601612257565b61339f8161228a565b840191505092915050565b60006080820190506133bf600083018761238b565b6133cc602083018661238b565b6133d960408301856124ed565b81810360608301526133eb8184613371565b905095945050505050565b600081519050613405816121ac565b92915050565b60006020828403121561342157613420612176565b5b600061342f848285016133f6565b91505092915050565b7f4552433732313a206d696e7420746f20746865207a65726f2061646472657373600082015250565b600061346e602083612246565b915061347982613438565b602082019050919050565b6000602082019050818103600083015261349d81613461565b9050919050565b7f4552433732313a20746f6b656e20616c7265616479206d696e74656400000000600082015250565b60006134da601c83612246565b91506134e5826134a4565b602082019050919050565b60006020820190508181036000830152613509816134cd565b905091905056fe4142434445464748494a4b4c4d4e4f505152535455565758595a6162636465666768696a6b6c6d6e6f707172737475767778797a303132333435363738392b2fa2646970667358221220db781761f66b69f378f8875484c23217e4e0d71b3126e5c1b6ea63d438b9969564736f6c63430008090033",
  "linkReferences": {},
  "deployedLinkReferences": {}
}