{
  "_format": "hh-sol-artifact-1",
  "contractName": "IP_NFTContract",
  "sourceName": "contracts/IPNFTContract.sol",
  "abi": [
    {
      "inputs": [],
      "stateMutability": "nonpayable",
      "type": "constructor"
    },
    {
      "anonymous": false,
      "inputs": [
        {
          "indexed": true,
          "internalType": "address",
          "name": "owner",
          "type": "address"
        },
        {
          "indexed": true,
          "internalType": "address",
          "name": "approved",
          "type": "address"
        },
        {
          "indexed": true,
          "internalType": "uint256",
          "name": "tokenId",
          "type": "uint256"
        }
      ],
      "name": "Approval",
      "type": "event"
    },
    {
      "anonymous": false,
      "inputs": [
        {
          "indexed": true,
          "internalType": "address",
          "name": "owner",
          "type": "address"
        },
        {
          "indexed": true,
          "internalType": "address",
          "name": "operator",
          "type": "address"
        },
        {
          "indexed": false,
          "internalType": "bool",
          "name": "approved",
          "type": "bool"
        }
      ],
      "name": "ApprovalForAll",
      "type": "event"
    },
    {
      "anonymous": false,
      "inputs": [
        {
          "indexed": true,
          "internalType": "address",
          "name": "_minter",
          "type": "address"
        }
      ],
      "name": "NewMinter",
      "type": "event"
    },
    {
      "anonymous": false,
      "inputs": [
        {
          "indexed": true,
          "internalType": "address",
          "name": "_minter",
          "type": "address"
        },
        {
          "indexed": true,
          "internalType": "uint256",
          "name": "tokenId",
          "type": "uint256"
        }
      ],
      "name": "NewToken",
      "type": "event"
    },
    {
      "anonymous": false,
      "inputs": [
        {
          "indexed": true,
          "internalType": "address",
          "name": "previousOwner",
          "type": "address"
        },
        {
          "indexed": true,
          "internalType": "address",
          "name": "newOwner",
          "type": "address"
        }
      ],
      "name": "OwnershipTransferred",
      "type": "event"
    },
    {
      "anonymous": false,
      "inputs": [
        {
          "indexed": true,
          "internalType": "address",
          "name": "_minter",
          "type": "address"
        }
      ],
      "name": "RevokedMinter",
      "type": "event"
    },
    {
      "anonymous": false,
      "inputs": [
        {
          "indexed": true,
          "internalType": "address",
          "name": "from",
          "type": "address"
        },
        {
          "indexed": true,
          "internalType": "address",
          "name": "to",
          "type": "address"
        },
        {
          "indexed": true,
          "internalType": "uint256",
          "name": "tokenId",
          "type": "uint256"
        }
      ],
      "name": "Transfer",
      "type": "event"
    },
    {
      "inputs": [
        {
          "internalType": "address",
          "name": "_userAddress",
          "type": "address"
        }
      ],
      "name": "addToBrightlist",
      "outputs": [],
      "stateMutability": "nonpayable",
      "type": "function"
    },
    {
      "inputs": [
        {
          "internalType": "address",
          "name": "to",
          "type": "address"
        },
        {
          "internalType": "uint256",
          "name": "tokenId",
          "type": "uint256"
        }
      ],
      "name": "approve",
      "outputs": [],
      "stateMutability": "nonpayable",
      "type": "function"
    },
    {
      "inputs": [
        {
          "internalType": "address",
          "name": "owner",
          "type": "address"
        }
      ],
      "name": "balanceOf",
      "outputs": [
        {
          "internalType": "uint256",
          "name": "",
          "type": "uint256"
        }
      ],
      "stateMutability": "view",
      "type": "function"
    },
    {
      "inputs": [
        {
          "internalType": "address",
          "name": "",
          "type": "address"
        }
      ],
      "name": "brightlist",
      "outputs": [
        {
          "internalType": "bool",
          "name": "",
          "type": "bool"
        }
      ],
      "stateMutability": "view",
      "type": "function"
    },
    {
      "inputs": [
        {
          "internalType": "uint256",
          "name": "",
          "type": "uint256"
        }
      ],
      "name": "contractData",
      "outputs": [
        {
          "internalType": "string",
          "name": "contractData",
          "type": "string"
        },
        {
          "internalType": "string",
          "name": "description",
          "type": "string"
        }
      ],
      "stateMutability": "view",
      "type": "function"
    },
    {
      "inputs": [
        {
          "internalType": "uint256",
          "name": "tokenId",
          "type": "uint256"
        }
      ],
      "name": "getApproved",
      "outputs": [
        {
          "internalType": "address",
          "name": "",
          "type": "address"
        }
      ],
      "stateMutability": "view",
      "type": "function"
    },
    {
      "inputs": [
        {
          "internalType": "address",
          "name": "owner",
          "type": "address"
        },
        {
          "internalType": "address",
          "name": "operator",
          "type": "address"
        }
      ],
      "name": "isApprovedForAll",
      "outputs": [
        {
          "internalType": "bool",
          "name": "",
          "type": "bool"
        }
      ],
      "stateMutability": "view",
      "type": "function"
    },
    {
      "inputs": [],
      "name": "name",
      "outputs": [
        {
          "internalType": "string",
          "name": "",
          "type": "string"
        }
      ],
      "stateMutability": "view",
      "type": "function"
    },
    {
      "inputs": [],
      "name": "owner",
      "outputs": [
        {
          "internalType": "address",
          "name": "",
          "type": "address"
        }
      ],
      "stateMutability": "view",
      "type": "function"
    },
    {
      "inputs": [
        {
          "internalType": "uint256",
          "name": "tokenId",
          "type": "uint256"
        }
      ],
      "name": "ownerOf",
      "outputs": [
        {
          "internalType": "address",
          "name": "",
          "type": "address"
        }
      ],
      "stateMutability": "view",
      "type": "function"
    },
    {
      "inputs": [
        {
          "internalType": "address",
          "name": "_userAddress",
          "type": "address"
        }
      ],
      "name": "removeFrombrightlist",
      "outputs": [],
      "stateMutability": "nonpayable",
      "type": "function"
    },
    {
      "inputs": [],
      "name": "renounceOwnership",
      "outputs": [],
      "stateMutability": "nonpayable",
      "type": "function"
    },
    {
      "inputs": [
        {
          "internalType": "address",
          "name": "_to",
          "type": "address"
        },
        {
          "internalType": "string",
          "name": "_description",
          "type": "string"
        },
        {
          "internalType": "string",
          "name": "_contractData",
          "type": "string"
        }
      ],
      "name": "safeMint",
      "outputs": [],
      "stateMutability": "nonpayable",
      "type": "function"
    },
    {
      "inputs": [
        {
          "internalType": "address",
          "name": "from",
          "type": "address"
        },
        {
          "internalType": "address",
          "name": "to",
          "type": "address"
        },
        {
          "internalType": "uint256",
          "name": "tokenId",
          "type": "uint256"
        }
      ],
      "name": "safeTransferFrom",
      "outputs": [],
      "stateMutability": "nonpayable",
      "type": "function"
    },
    {
      "inputs": [
        {
          "internalType": "address",
          "name": "from",
          "type": "address"
        },
        {
          "internalType": "address",
          "name": "to",
          "type": "address"
        },
        {
          "internalType": "uint256",
          "name": "tokenId",
          "type": "uint256"
        },
        {
          "internalType": "bytes",
          "name": "data",
          "type": "bytes"
        }
      ],
      "name": "safeTransferFrom",
      "outputs": [],
      "stateMutability": "nonpayable",
      "type": "function"
    },
    {
      "inputs": [
        {
          "internalType": "address",
          "name": "operator",
          "type": "address"
        },
        {
          "internalType": "bool",
          "name": "approved",
          "type": "bool"
        }
      ],
      "name": "setApprovalForAll",
      "outputs": [],
      "stateMutability": "nonpayable",
      "type": "function"
    },
    {
      "inputs": [
        {
          "internalType": "bytes4",
          "name": "interfaceId",
          "type": "bytes4"
        }
      ],
      "name": "supportsInterface",
      "outputs": [
        {
          "internalType": "bool",
          "name": "",
          "type": "bool"
        }
      ],
      "stateMutability": "view",
      "type": "function"
    },
    {
      "inputs": [],
      "name": "symbol",
      "outputs": [
        {
          "internalType": "string",
          "name": "",
          "type": "string"
        }
      ],
      "stateMutability": "view",
      "type": "function"
    },
    {
      "inputs": [
        {
          "internalType": "uint256",
          "name": "tokenId",
          "type": "uint256"
        }
      ],
      "name": "tokenURI",
      "outputs": [
        {
          "internalType": "string",
          "name": "",
          "type": "string"
        }
      ],
      "stateMutability": "view",
      "type": "function"
    },
    {
      "inputs": [
        {
          "internalType": "address",
          "name": "from",
          "type": "address"
        },
        {
          "internalType": "address",
          "name": "to",
          "type": "address"
        },
        {
          "internalType": "uint256",
          "name": "tokenId",
          "type": "uint256"
        }
      ],
      "name": "transferFrom",
      "outputs": [],
      "stateMutability": "nonpayable",
      "type": "function"
    },
    {
      "inputs": [
        {
          "internalType": "address",
          "name": "newOwner",
          "type": "address"
        }
      ],
      "name": "transferOwnership",
      "outputs": [],
      "stateMutability": "nonpayable",
      "type": "function"
    }
  ],
  "bytecode": "0x60806040523480156200001157600080fd5b506040518060400160405280600e81526020017f49505f4e4654436f6e74726163740000000000000000000000000000000000008152506040518060400160405280600681526020017f49502d4e465400000000000000000000000000000000000000000000000000008152506200009e62000092620000d860201b60201c565b620000e060201b60201c565b8160019080519060200190620000b6929190620001a4565b508060029080519060200190620000cf929190620001a4565b505050620002b9565b600033905090565b60008060009054906101000a900473ffffffffffffffffffffffffffffffffffffffff169050816000806101000a81548173ffffffffffffffffffffffffffffffffffffffff021916908373ffffffffffffffffffffffffffffffffffffffff1602179055508173ffffffffffffffffffffffffffffffffffffffff168173ffffffffffffffffffffffffffffffffffffffff167f8be0079c531659141344cd1fd0a4f28419497f9722a3daafe3b4186f6b6457e060405160405180910390a35050565b828054620001b29062000283565b90600052602060002090601f016020900481019282620001d6576000855562000222565b82601f10620001f157805160ff191683800117855562000222565b8280016001018555821562000222579182015b828111156200022157825182559160200191906001019062000204565b5b50905062000231919062000235565b5090565b5b808211156200025057600081600090555060010162000236565b5090565b7f4e487b7100000000000000000000000000000000000000000000000000000000600052602260045260246000fd5b600060028204905060018216806200029c57607f821691505b60208210811415620002b357620002b262000254565b5b50919050565b6134c980620002c96000396000f3fe608060405234801561001057600080fd5b50600436106101375760003560e01c8063715018a6116100b8578063b88d4fde1161007c578063b88d4fde1461034d578063c87b56dd14610369578063e985e9c514610399578063eca81d42146103c9578063f2fde38b146103e5578063fe8579341461040157610137565b8063715018a6146102cf5780638da5cb5b146102d957806395d89b41146102f7578063a22cb46514610315578063ace910321461033157610137565b806333812e7b116100ff57806333812e7b146101f257806342842e0e1461022357806343c9be501461023f5780636352211e1461026f57806370a082311461029f57610137565b806301ffc9a71461013c57806306fdde031461016c578063081812fc1461018a578063095ea7b3146101ba57806323b872dd146101d6575b600080fd5b6101566004803603810190610151919061216e565b61041d565b60405161016391906121b6565b60405180910390f35b6101746104ff565b604051610181919061226a565b60405180910390f35b6101a4600480360381019061019f91906122c2565b610591565b6040516101b19190612330565b60405180910390f35b6101d460048036038101906101cf9190612377565b6105d7565b005b6101f060048036038101906101eb91906123b7565b6106ef565b005b61020c600480360381019061020791906122c2565b61074f565b60405161021a92919061240a565b60405180910390f35b61023d600480360381019061023891906123b7565b610883565b005b61025960048036038101906102549190612441565b6108a3565b60405161026691906121b6565b60405180910390f35b610289600480360381019061028491906122c2565b6108c3565b6040516102969190612330565b60405180910390f35b6102b960048036038101906102b49190612441565b61094a565b6040516102c6919061247d565b60405180910390f35b6102d7610a02565b005b6102e1610a16565b6040516102ee9190612330565b60405180910390f35b6102ff610a3f565b60405161030c919061226a565b60405180910390f35b61032f600480360381019061032a91906124c4565b610ad1565b005b61034b60048036038101906103469190612441565b610ae7565b005b61036760048036038101906103629190612639565b610b84565b005b610383600480360381019061037e91906122c2565b610be6565b604051610390919061226a565b60405180910390f35b6103b360048036038101906103ae91906126bc565b610da1565b6040516103c091906121b6565b60405180910390f35b6103e360048036038101906103de919061279d565b610e35565b005b6103ff60048036038101906103fa9190612441565b610fa2565b005b61041b60048036038101906104169190612441565b611026565b005b60007f80ac58cd000000000000000000000000000000000000000000000000000000007bffffffffffffffffffffffffffffffffffffffffffffffffffffffff1916827bffffffffffffffffffffffffffffffffffffffffffffffffffffffff191614806104e857507f5b5e139f000000000000000000000000000000000000000000000000000000007bffffffffffffffffffffffffffffffffffffffffffffffffffffffff1916827bffffffffffffffffffffffffffffffffffffffffffffffffffffffff1916145b806104f857506104f7826110cc565b5b9050919050565b60606001805461050e90612857565b80601f016020809104026020016040519081016040528092919081815260200182805461053a90612857565b80156105875780601f1061055c57610100808354040283529160200191610587565b820191906000526020600020905b81548152906001019060200180831161056a57829003601f168201915b5050505050905090565b600061059c82611136565b6005600083815260200190815260200160002060009054906101000a900473ffffffffffffffffffffffffffffffffffffffff169050919050565b60006105e2826108c3565b90508073ffffffffffffffffffffffffffffffffffffffff168373ffffffffffffffffffffffffffffffffffffffff161415610653576040517f08c379a000000000000000000000000000000000000000000000000000000000815260040161064a906128fb565b60405180910390fd5b8073ffffffffffffffffffffffffffffffffffffffff16610672611181565b73ffffffffffffffffffffffffffffffffffffffff1614806106a157506106a08161069b611181565b610da1565b5b6106e0576040517f08c379a00000000000000000000000000000000000000000000000000000000081526004016106d79061298d565b60405180910390fd5b6106ea8383611189565b505050565b6107006106fa611181565b82611242565b61073f576040517f08c379a000000000000000000000000000000000000000000000000000000000815260040161073690612a1f565b60405180910390fd5b61074a8383836112d7565b505050565b600a60205280600052604060002060009150905080600001805461077290612857565b80601f016020809104026020016040519081016040528092919081815260200182805461079e90612857565b80156107eb5780601f106107c0576101008083540402835291602001916107eb565b820191906000526020600020905b8154815290600101906020018083116107ce57829003601f168201915b50505050509080600101805461080090612857565b80601f016020809104026020016040519081016040528092919081815260200182805461082c90612857565b80156108795780601f1061084e57610100808354040283529160200191610879565b820191906000526020600020905b81548152906001019060200180831161085c57829003601f168201915b5050505050905082565b61089e83838360405180602001604052806000815250610b84565b505050565b60096020528060005260406000206000915054906101000a900460ff1681565b6000806108cf836115d1565b9050600073ffffffffffffffffffffffffffffffffffffffff168173ffffffffffffffffffffffffffffffffffffffff161415610941576040517f08c379a000000000000000000000000000000000000000000000000000000000815260040161093890612a8b565b60405180910390fd5b80915050919050565b60008073ffffffffffffffffffffffffffffffffffffffff168273ffffffffffffffffffffffffffffffffffffffff1614156109bb576040517f08c379a00000000000000000000000000000000000000000000000000000000081526004016109b290612b1d565b60405180910390fd5b600460008373ffffffffffffffffffffffffffffffffffffffff1673ffffffffffffffffffffffffffffffffffffffff168152602001908152602001600020549050919050565b610a0a61160e565b610a14600061168c565b565b60008060009054906101000a900473ffffffffffffffffffffffffffffffffffffffff16905090565b606060028054610a4e90612857565b80601f0160208091040260200160405190810160405280929190818152602001828054610a7a90612857565b8015610ac75780601f10610a9c57610100808354040283529160200191610ac7565b820191906000526020600020905b815481529060010190602001808311610aaa57829003601f168201915b5050505050905090565b610ae3610adc611181565b8383611750565b5050565b610aef61160e565b600960008273ffffffffffffffffffffffffffffffffffffffff1673ffffffffffffffffffffffffffffffffffffffff16815260200190815260200160002060006101000a81549060ff02191690558073ffffffffffffffffffffffffffffffffffffffff167f8e768d7a5530d1f68e76ded405597f5ab4e340da31733f8704353e0b62b911f860405160405180910390a250565b610b95610b8f611181565b83611242565b610bd4576040517f08c379a0000000000000000000000000000000000000000000000000000000008152600401610bcb90612a1f565b60405180910390fd5b610be0848484846118bd565b50505050565b6060610bf182611136565b6000600a6000848152602001908152602001600020604051806040016040529081600082018054610c2190612857565b80601f0160208091040260200160405190810160405280929190818152602001828054610c4d90612857565b8015610c9a5780601f10610c6f57610100808354040283529160200191610c9a565b820191906000526020600020905b815481529060010190602001808311610c7d57829003601f168201915b50505050508152602001600182018054610cb390612857565b80601f0160208091040260200160405190810160405280929190818152602001828054610cdf90612857565b8015610d2c5780601f10610d0157610100808354040283529160200191610d2c565b820191906000526020600020905b815481529060010190602001808311610d0f57829003601f168201915b50505050508152505090506000610d76610d466008611919565b83602001518460000151604051602001610d6293929190612cca565b604051602081830303815290604052611927565b905080604051602001610d899190612d77565b60405160208183030381529060405292505050919050565b6000600660008473ffffffffffffffffffffffffffffffffffffffff1673ffffffffffffffffffffffffffffffffffffffff16815260200190815260200160002060008373ffffffffffffffffffffffffffffffffffffffff1673ffffffffffffffffffffffffffffffffffffffff16815260200190815260200160002060009054906101000a900460ff16905092915050565b60096000610e41611181565b73ffffffffffffffffffffffffffffffffffffffff1673ffffffffffffffffffffffffffffffffffffffff16815260200190815260200160002060009054906101000a900460ff16610ec8576040517f08c379a0000000000000000000000000000000000000000000000000000000008152600401610ebf90612de5565b60405180910390fd5b6000610ed46008611919565b9050610ee06008611a8b565b6000610eec6008611919565b905083600a60008381526020019081526020016000206001019080519060200190610f1892919061205f565b5082600a60008381526020019081526020016000206000019080519060200190610f4392919061205f565b50610f4d85610ae7565b610f578583611aa1565b808573ffffffffffffffffffffffffffffffffffffffff167f275a11e033325e9b28a23131fcc7e243a49bb38beb686051976dd8c8899d9a3c60405160405180910390a35050505050565b610faa61160e565b600073ffffffffffffffffffffffffffffffffffffffff168173ffffffffffffffffffffffffffffffffffffffff16141561101a576040517f08c379a000000000000000000000000000000000000000000000000000000000815260040161101190612e77565b60405180910390fd5b6110238161168c565b50565b61102e61160e565b6001600960008373ffffffffffffffffffffffffffffffffffffffff1673ffffffffffffffffffffffffffffffffffffffff16815260200190815260200160002060006101000a81548160ff0219169083151502179055508073ffffffffffffffffffffffffffffffffffffffff167f6adffd5c93085d835dac6f3b40adf7c242ca4b3284048d20c3d8a501748dc97360405160405180910390a250565b60007f01ffc9a7000000000000000000000000000000000000000000000000000000007bffffffffffffffffffffffffffffffffffffffffffffffffffffffff1916827bffffffffffffffffffffffffffffffffffffffffffffffffffffffff1916149050919050565b61113f81611abf565b61117e576040517f08c379a000000000000000000000000000000000000000000000000000000000815260040161117590612a8b565b60405180910390fd5b50565b600033905090565b816005600083815260200190815260200160002060006101000a81548173ffffffffffffffffffffffffffffffffffffffff021916908373ffffffffffffffffffffffffffffffffffffffff160217905550808273ffffffffffffffffffffffffffffffffffffffff166111fc836108c3565b73ffffffffffffffffffffffffffffffffffffffff167f8c5be1e5ebec7d5bd14f71427d1e84f3dd0314c0f7b2291e5b200ac8c7c3b92560405160405180910390a45050565b60008061124e836108c3565b90508073ffffffffffffffffffffffffffffffffffffffff168473ffffffffffffffffffffffffffffffffffffffff161480611290575061128f8185610da1565b5b806112ce57508373ffffffffffffffffffffffffffffffffffffffff166112b684610591565b73ffffffffffffffffffffffffffffffffffffffff16145b91505092915050565b8273ffffffffffffffffffffffffffffffffffffffff166112f7826108c3565b73ffffffffffffffffffffffffffffffffffffffff161461134d576040517f08c379a000000000000000000000000000000000000000000000000000000000815260040161134490612f09565b60405180910390fd5b600073ffffffffffffffffffffffffffffffffffffffff168273ffffffffffffffffffffffffffffffffffffffff1614156113bd576040517f08c379a00000000000000000000000000000000000000000000000000000000081526004016113b490612f9b565b60405180910390fd5b6113ca8383836001611b00565b8273ffffffffffffffffffffffffffffffffffffffff166113ea826108c3565b73ffffffffffffffffffffffffffffffffffffffff1614611440576040517f08c379a000000000000000000000000000000000000000000000000000000000815260040161143790612f09565b60405180910390fd5b6005600082815260200190815260200160002060006101000a81549073ffffffffffffffffffffffffffffffffffffffff02191690556001600460008573ffffffffffffffffffffffffffffffffffffffff1673ffffffffffffffffffffffffffffffffffffffff168152602001908152602001600020600082825403925050819055506001600460008473ffffffffffffffffffffffffffffffffffffffff1673ffffffffffffffffffffffffffffffffffffffff16815260200190815260200160002060008282540192505081905550816003600083815260200190815260200160002060006101000a81548173ffffffffffffffffffffffffffffffffffffffff021916908373ffffffffffffffffffffffffffffffffffffffff160217905550808273ffffffffffffffffffffffffffffffffffffffff168473ffffffffffffffffffffffffffffffffffffffff167fddf252ad1be2c89b69c2b068fc378daa952ba7f163c4a11628f55a4df523b3ef60405160405180910390a46115cc8383836001611c26565b505050565b60006003600083815260200190815260200160002060009054906101000a900473ffffffffffffffffffffffffffffffffffffffff169050919050565b611616611181565b73ffffffffffffffffffffffffffffffffffffffff16611634610a16565b73ffffffffffffffffffffffffffffffffffffffff161461168a576040517f08c379a000000000000000000000000000000000000000000000000000000000815260040161168190613007565b60405180910390fd5b565b60008060009054906101000a900473ffffffffffffffffffffffffffffffffffffffff169050816000806101000a81548173ffffffffffffffffffffffffffffffffffffffff021916908373ffffffffffffffffffffffffffffffffffffffff1602179055508173ffffffffffffffffffffffffffffffffffffffff168173ffffffffffffffffffffffffffffffffffffffff167f8be0079c531659141344cd1fd0a4f28419497f9722a3daafe3b4186f6b6457e060405160405180910390a35050565b8173ffffffffffffffffffffffffffffffffffffffff168373ffffffffffffffffffffffffffffffffffffffff1614156117bf576040517f08c379a00000000000000000000000000000000000000000000000000000000081526004016117b690613073565b60405180910390fd5b80600660008573ffffffffffffffffffffffffffffffffffffffff1673ffffffffffffffffffffffffffffffffffffffff16815260200190815260200160002060008473ffffffffffffffffffffffffffffffffffffffff1673ffffffffffffffffffffffffffffffffffffffff16815260200190815260200160002060006101000a81548160ff0219169083151502179055508173ffffffffffffffffffffffffffffffffffffffff168373ffffffffffffffffffffffffffffffffffffffff167f17307eab39ab6107e8899845ad3d59bd9653f200f220920489ca2b5937696c31836040516118b091906121b6565b60405180910390a3505050565b6118c88484846112d7565b6118d484848484611c2c565b611913576040517f08c379a000000000000000000000000000000000000000000000000000000000815260040161190a90613105565b60405180910390fd5b50505050565b600081600001549050919050565b606060008251141561194a57604051806020016040528060008152509050611a86565b600060405180606001604052806040815260200161345460409139905060006003600285516119799190613154565b61198391906131d9565b600461198f919061320a565b67ffffffffffffffff8111156119a8576119a761250e565b5b6040519080825280601f01601f1916602001820160405280156119da5781602001600182028036833780820191505090505b509050600182016020820185865187015b80821015611a46576003820191508151603f8160121c168501518453600184019350603f81600c1c168501518453600184019350603f8160061c168501518453600184019350603f81168501518453600184019350506119eb565b5050600386510660018114611a625760028114611a7557611a7d565b603d6001830353603d6002830353611a7d565b603d60018303535b50505080925050505b919050565b6001816000016000828254019250508190555050565b611abb828260405180602001604052806000815250611dc3565b5050565b60008073ffffffffffffffffffffffffffffffffffffffff16611ae1836115d1565b73ffffffffffffffffffffffffffffffffffffffff1614159050919050565b6001811115611c2057600073ffffffffffffffffffffffffffffffffffffffff168473ffffffffffffffffffffffffffffffffffffffff1614611b945780600460008673ffffffffffffffffffffffffffffffffffffffff1673ffffffffffffffffffffffffffffffffffffffff1681526020019081526020016000206000828254611b8c9190613264565b925050819055505b600073ffffffffffffffffffffffffffffffffffffffff168373ffffffffffffffffffffffffffffffffffffffff1614611c1f5780600460008573ffffffffffffffffffffffffffffffffffffffff1673ffffffffffffffffffffffffffffffffffffffff1681526020019081526020016000206000828254611c179190613154565b925050819055505b5b50505050565b50505050565b6000611c4d8473ffffffffffffffffffffffffffffffffffffffff16611e1e565b15611db6578373ffffffffffffffffffffffffffffffffffffffff1663150b7a02611c76611181565b8786866040518563ffffffff1660e01b8152600401611c9894939291906132ed565b602060405180830381600087803b158015611cb257600080fd5b505af1925050508015611ce357506040513d601f19601f82011682018060405250810190611ce0919061334e565b60015b611d66573d8060008114611d13576040519150601f19603f3d011682016040523d82523d6000602084013e611d18565b606091505b50600081511415611d5e576040517f08c379a0000000000000000000000000000000000000000000000000000000008152600401611d5590613105565b60405180910390fd5b805181602001fd5b63150b7a0260e01b7bffffffffffffffffffffffffffffffffffffffffffffffffffffffff1916817bffffffffffffffffffffffffffffffffffffffffffffffffffffffff191614915050611dbb565b600190505b949350505050565b611dcd8383611e41565b611dda6000848484611c2c565b611e19576040517f08c379a0000000000000000000000000000000000000000000000000000000008152600401611e1090613105565b60405180910390fd5b505050565b6000808273ffffffffffffffffffffffffffffffffffffffff163b119050919050565b600073ffffffffffffffffffffffffffffffffffffffff168273ffffffffffffffffffffffffffffffffffffffff161415611eb1576040517f08c379a0000000000000000000000000000000000000000000000000000000008152600401611ea8906133c7565b60405180910390fd5b611eba81611abf565b15611efa576040517f08c379a0000000000000000000000000000000000000000000000000000000008152600401611ef190613433565b60405180910390fd5b611f08600083836001611b00565b611f1181611abf565b15611f51576040517f08c379a0000000000000000000000000000000000000000000000000000000008152600401611f4890613433565b60405180910390fd5b6001600460008473ffffffffffffffffffffffffffffffffffffffff1673ffffffffffffffffffffffffffffffffffffffff16815260200190815260200160002060008282540192505081905550816003600083815260200190815260200160002060006101000a81548173ffffffffffffffffffffffffffffffffffffffff021916908373ffffffffffffffffffffffffffffffffffffffff160217905550808273ffffffffffffffffffffffffffffffffffffffff16600073ffffffffffffffffffffffffffffffffffffffff167fddf252ad1be2c89b69c2b068fc378daa952ba7f163c4a11628f55a4df523b3ef60405160405180910390a461205b600083836001611c26565b5050565b82805461206b90612857565b90600052602060002090601f01602090048101928261208d57600085556120d4565b82601f106120a657805160ff19168380011785556120d4565b828001600101855582156120d4579182015b828111156120d35782518255916020019190600101906120b8565b5b5090506120e191906120e5565b5090565b5b808211156120fe5760008160009055506001016120e6565b5090565b6000604051905090565b600080fd5b600080fd5b60007fffffffff0000000000000000000000000000000000000000000000000000000082169050919050565b61214b81612116565b811461215657600080fd5b50565b60008135905061216881612142565b92915050565b6000602082840312156121845761218361210c565b5b600061219284828501612159565b91505092915050565b60008115159050919050565b6121b08161219b565b82525050565b60006020820190506121cb60008301846121a7565b92915050565b600081519050919050565b600082825260208201905092915050565b60005b8381101561220b5780820151818401526020810190506121f0565b8381111561221a576000848401525b50505050565b6000601f19601f8301169050919050565b600061223c826121d1565b61224681856121dc565b93506122568185602086016121ed565b61225f81612220565b840191505092915050565b600060208201905081810360008301526122848184612231565b905092915050565b6000819050919050565b61229f8161228c565b81146122aa57600080fd5b50565b6000813590506122bc81612296565b92915050565b6000602082840312156122d8576122d761210c565b5b60006122e6848285016122ad565b91505092915050565b600073ffffffffffffffffffffffffffffffffffffffff82169050919050565b600061231a826122ef565b9050919050565b61232a8161230f565b82525050565b60006020820190506123456000830184612321565b92915050565b6123548161230f565b811461235f57600080fd5b50565b6000813590506123718161234b565b92915050565b6000806040838503121561238e5761238d61210c565b5b600061239c85828601612362565b92505060206123ad858286016122ad565b9150509250929050565b6000806000606084860312156123d0576123cf61210c565b5b60006123de86828701612362565b93505060206123ef86828701612362565b9250506040612400868287016122ad565b9150509250925092565b600060408201905081810360008301526124248185612231565b905081810360208301526124388184612231565b90509392505050565b6000602082840312156124575761245661210c565b5b600061246584828501612362565b91505092915050565b6124778161228c565b82525050565b6000602082019050612492600083018461246e565b92915050565b6124a18161219b565b81146124ac57600080fd5b50565b6000813590506124be81612498565b92915050565b600080604083850312156124db576124da61210c565b5b60006124e985828601612362565b92505060206124fa858286016124af565b9150509250929050565b600080fd5b600080fd5b7f4e487b7100000000000000000000000000000000000000000000000000000000600052604160045260246000fd5b61254682612220565b810181811067ffffffffffffffff821117156125655761256461250e565b5b80604052505050565b6000612578612102565b9050612584828261253d565b919050565b600067ffffffffffffffff8211156125a4576125a361250e565b5b6125ad82612220565b9050602081019050919050565b82818337600083830152505050565b60006125dc6125d784612589565b61256e565b9050828152602081018484840111156125f8576125f7612509565b5b6126038482856125ba565b509392505050565b600082601f8301126126205761261f612504565b5b81356126308482602086016125c9565b91505092915050565b600080600080608085870312156126535761265261210c565b5b600061266187828801612362565b945050602061267287828801612362565b9350506040612683878288016122ad565b925050606085013567ffffffffffffffff8111156126a4576126a3612111565b5b6126b08782880161260b565b91505092959194509250565b600080604083850312156126d3576126d261210c565b5b60006126e185828601612362565b92505060206126f285828601612362565b9150509250929050565b600067ffffffffffffffff8211156127175761271661250e565b5b61272082612220565b9050602081019050919050565b600061274061273b846126fc565b61256e565b90508281526020810184848401111561275c5761275b612509565b5b6127678482856125ba565b509392505050565b600082601f83011261278457612783612504565b5b813561279484826020860161272d565b91505092915050565b6000806000606084860312156127b6576127b561210c565b5b60006127c486828701612362565b935050602084013567ffffffffffffffff8111156127e5576127e4612111565b5b6127f18682870161276f565b925050604084013567ffffffffffffffff81111561281257612811612111565b5b61281e8682870161276f565b9150509250925092565b7f4e487b7100000000000000000000000000000000000000000000000000000000600052602260045260246000fd5b6000600282049050600182168061286f57607f821691505b6020821081141561288357612882612828565b5b50919050565b7f4552433732313a20617070726f76616c20746f2063757272656e74206f776e6560008201527f7200000000000000000000000000000000000000000000000000000000000000602082015250565b60006128e56021836121dc565b91506128f082612889565b604082019050919050565b60006020820190508181036000830152612914816128d8565b9050919050565b7f4552433732313a20617070726f76652063616c6c6572206973206e6f7420746f60008201527f6b656e206f776e6572206f7220617070726f76656420666f7220616c6c000000602082015250565b6000612977603d836121dc565b91506129828261291b565b604082019050919050565b600060208201905081810360008301526129a68161296a565b9050919050565b7f4552433732313a2063616c6c6572206973206e6f7420746f6b656e206f776e6560008201527f72206f7220617070726f76656400000000000000000000000000000000000000602082015250565b6000612a09602d836121dc565b9150612a14826129ad565b604082019050919050565b60006020820190508181036000830152612a38816129fc565b9050919050565b7f4552433732313a20696e76616c696420746f6b656e2049440000000000000000600082015250565b6000612a756018836121dc565b9150612a8082612a3f565b602082019050919050565b60006020820190508181036000830152612aa481612a68565b9050919050565b7f4552433732313a2061646472657373207a65726f206973206e6f74206120766160008201527f6c6964206f776e65720000000000000000000000000000000000000000000000602082015250565b6000612b076029836121dc565b9150612b1282612aab565b604082019050919050565b60006020820190508181036000830152612b3681612afa565b9050919050565b600081905092915050565b7f7b226e616d65223a746f6b656e20230000000000000000000000000000000000600082015250565b6000612b7e600f83612b3d565b9150612b8982612b48565b600f82019050919050565b6000819050919050565b612baf612baa8261228c565b612b94565b82525050565b7f226465736372697074696f6e223a000000000000000000000000000000000000600082015250565b6000612beb600e83612b3d565b9150612bf682612bb5565b600e82019050919050565b6000612c0c826121d1565b612c168185612b3d565b9350612c268185602086016121ed565b80840191505092915050565b7f22636f6e747261637444617461223a0000000000000000000000000000000000600082015250565b6000612c68600f83612b3d565b9150612c7382612c32565b600f82019050919050565b7f227d000000000000000000000000000000000000000000000000000000000000600082015250565b6000612cb4600283612b3d565b9150612cbf82612c7e565b600282019050919050565b6000612cd582612b71565b9150612ce18286612b9e565b602082019150612cf082612bde565b9150612cfc8285612c01565b9150612d0782612c5b565b9150612d138284612c01565b9150612d1e82612ca7565b9150819050949350505050565b7f646174613a6170706c69636174696f6e2f6a736f6e3b6261736536342c000000600082015250565b6000612d61601d83612b3d565b9150612d6c82612d2b565b601d82019050919050565b6000612d8282612d54565b9150612d8e8284612c01565b915081905092915050565b7f4e4f545f494e5f57484954454c49535400000000000000000000000000000000600082015250565b6000612dcf6010836121dc565b9150612dda82612d99565b602082019050919050565b60006020820190508181036000830152612dfe81612dc2565b9050919050565b7f4f776e61626c653a206e6577206f776e657220697320746865207a65726f206160008201527f6464726573730000000000000000000000000000000000000000000000000000602082015250565b6000612e616026836121dc565b9150612e6c82612e05565b604082019050919050565b60006020820190508181036000830152612e9081612e54565b9050919050565b7f4552433732313a207472616e736665722066726f6d20696e636f72726563742060008201527f6f776e6572000000000000000000000000000000000000000000000000000000602082015250565b6000612ef36025836121dc565b9150612efe82612e97565b604082019050919050565b60006020820190508181036000830152612f2281612ee6565b9050919050565b7f4552433732313a207472616e7366657220746f20746865207a65726f2061646460008201527f7265737300000000000000000000000000000000000000000000000000000000602082015250565b6000612f856024836121dc565b9150612f9082612f29565b604082019050919050565b60006020820190508181036000830152612fb481612f78565b9050919050565b7f4f776e61626c653a2063616c6c6572206973206e6f7420746865206f776e6572600082015250565b6000612ff16020836121dc565b9150612ffc82612fbb565b602082019050919050565b6000602082019050818103600083015261302081612fe4565b9050919050565b7f4552433732313a20617070726f766520746f2063616c6c657200000000000000600082015250565b600061305d6019836121dc565b915061306882613027565b602082019050919050565b6000602082019050818103600083015261308c81613050565b9050919050565b7f4552433732313a207472616e7366657220746f206e6f6e20455243373231526560008201527f63656976657220696d706c656d656e7465720000000000000000000000000000602082015250565b60006130ef6032836121dc565b91506130fa82613093565b604082019050919050565b6000602082019050818103600083015261311e816130e2565b9050919050565b7f4e487b7100000000000000000000000000000000000000000000000000000000600052601160045260246000fd5b600061315f8261228c565b915061316a8361228c565b9250827fffffffffffffffffffffffffffffffffffffffffffffffffffffffffffffffff0382111561319f5761319e613125565b5b828201905092915050565b7f4e487b7100000000000000000000000000000000000000000000000000000000600052601260045260246000fd5b60006131e48261228c565b91506131ef8361228c565b9250826131ff576131fe6131aa565b5b828204905092915050565b60006132158261228c565b91506132208361228c565b9250817fffffffffffffffffffffffffffffffffffffffffffffffffffffffffffffffff048311821515161561325957613258613125565b5b828202905092915050565b600061326f8261228c565b915061327a8361228c565b92508282101561328d5761328c613125565b5b828203905092915050565b600081519050919050565b600082825260208201905092915050565b60006132bf82613298565b6132c981856132a3565b93506132d98185602086016121ed565b6132e281612220565b840191505092915050565b60006080820190506133026000830187612321565b61330f6020830186612321565b61331c604083018561246e565b818103606083015261332e81846132b4565b905095945050505050565b60008151905061334881612142565b92915050565b6000602082840312156133645761336361210c565b5b600061337284828501613339565b91505092915050565b7f4552433732313a206d696e7420746f20746865207a65726f2061646472657373600082015250565b60006133b16020836121dc565b91506133bc8261337b565b602082019050919050565b600060208201905081810360008301526133e0816133a4565b9050919050565b7f4552433732313a20746f6b656e20616c7265616479206d696e74656400000000600082015250565b600061341d601c836121dc565b9150613428826133e7565b602082019050919050565b6000602082019050818103600083015261344c81613410565b905091905056fe4142434445464748494a4b4c4d4e4f505152535455565758595a6162636465666768696a6b6c6d6e6f707172737475767778797a303132333435363738392b2fa2646970667358221220dd6018fd379a6495f451c3436a95616512d0d049069ca81d797529d668f39e1364736f6c63430008090033",
  "linkReferences": {},
  "deployedLinkReferences": {}
}