{
	"_format": "hh-sol-artifact-1",
	"contractName": "IP_NFTContract",
	"sourceName": "contracts/IPNFTContract.sol",
	"abi": [
		{
			"inputs": [],
			"stateMutability": "nonpayable",
			"type": "constructor"
		},
		{
			"anonymous": false,
			"inputs": [
				{
					"indexed": true,
					"internalType": "address",
					"name": "owner",
					"type": "address"
				},
				{
					"indexed": true,
					"internalType": "address",
					"name": "approved",
					"type": "address"
				},
				{
					"indexed": true,
					"internalType": "uint256",
					"name": "tokenId",
					"type": "uint256"
				}
			],
			"name": "Approval",
			"type": "event"
		},
		{
			"anonymous": false,
			"inputs": [
				{
					"indexed": true,
					"internalType": "address",
					"name": "owner",
					"type": "address"
				},
				{
					"indexed": true,
					"internalType": "address",
					"name": "operator",
					"type": "address"
				},
				{
					"indexed": false,
					"internalType": "bool",
					"name": "approved",
					"type": "bool"
				}
			],
			"name": "ApprovalForAll",
			"type": "event"
		},
		{
			"anonymous": false,
			"inputs": [
				{
					"indexed": true,
					"internalType": "address",
					"name": "_minter",
					"type": "address"
				}
			],
			"name": "NewMinter",
			"type": "event"
		},
		{
			"anonymous": false,
			"inputs": [
				{
					"indexed": true,
					"internalType": "address",
					"name": "_minter",
					"type": "address"
				},
				{
					"indexed": true,
					"internalType": "uint256",
					"name": "tokenId",
					"type": "uint256"
				}
			],
			"name": "NewToken",
			"type": "event"
		},
		{
			"anonymous": false,
			"inputs": [
				{
					"indexed": true,
					"internalType": "address",
					"name": "previousOwner",
					"type": "address"
				},
				{
					"indexed": true,
					"internalType": "address",
					"name": "newOwner",
					"type": "address"
				}
			],
			"name": "OwnershipTransferred",
			"type": "event"
		},
		{
			"anonymous": false,
			"inputs": [
				{
					"indexed": true,
					"internalType": "address",
					"name": "_minter",
					"type": "address"
				}
			],
			"name": "RevokedMinter",
			"type": "event"
		},
		{
			"anonymous": false,
			"inputs": [
				{
					"indexed": true,
					"internalType": "address",
					"name": "from",
					"type": "address"
				},
				{
					"indexed": true,
					"internalType": "address",
					"name": "to",
					"type": "address"
				},
				{
					"indexed": true,
					"internalType": "uint256",
					"name": "tokenId",
					"type": "uint256"
				}
			],
			"name": "Transfer",
			"type": "event"
		},
		{
			"inputs": [
				{
					"internalType": "address",
					"name": "_userAddress",
					"type": "address"
				}
			],
			"name": "addToBrightlist",
			"outputs": [],
			"stateMutability": "nonpayable",
			"type": "function"
		},
		{
			"inputs": [
				{
					"internalType": "address",
					"name": "to",
					"type": "address"
				},
				{
					"internalType": "uint256",
					"name": "tokenId",
					"type": "uint256"
				}
			],
			"name": "approve",
			"outputs": [],
			"stateMutability": "nonpayable",
			"type": "function"
		},
		{
			"inputs": [
				{
					"internalType": "address",
					"name": "owner",
					"type": "address"
				}
			],
			"name": "balanceOf",
			"outputs": [
				{
					"internalType": "uint256",
					"name": "",
					"type": "uint256"
				}
			],
			"stateMutability": "view",
			"type": "function"
		},
		{
			"inputs": [
				{
					"internalType": "address",
					"name": "",
					"type": "address"
				}
			],
			"name": "brightlist",
			"outputs": [
				{
					"internalType": "bool",
					"name": "",
					"type": "bool"
				}
			],
			"stateMutability": "view",
			"type": "function"
		},
		{
			"inputs": [
				{
					"internalType": "uint256",
					"name": "tokenId",
					"type": "uint256"
				}
			],
			"name": "getApproved",
			"outputs": [
				{
					"internalType": "address",
					"name": "",
					"type": "address"
				}
			],
			"stateMutability": "view",
			"type": "function"
		},
		{
			"inputs": [
				{
					"internalType": "address",
					"name": "owner",
					"type": "address"
				},
				{
					"internalType": "address",
					"name": "operator",
					"type": "address"
				}
			],
			"name": "isApprovedForAll",
			"outputs": [
				{
					"internalType": "bool",
					"name": "",
					"type": "bool"
				}
			],
			"stateMutability": "view",
			"type": "function"
		},
		{
			"inputs": [],
			"name": "name",
			"outputs": [
				{
					"internalType": "string",
					"name": "",
					"type": "string"
				}
			],
			"stateMutability": "view",
			"type": "function"
		},
		{
			"inputs": [
				{
					"internalType": "uint256",
					"name": "",
					"type": "uint256"
				}
			],
			"name": "nftData",
			"outputs": [
				{
					"internalType": "string",
					"name": "contractData",
					"type": "string"
				},
				{
					"internalType": "string",
					"name": "description",
					"type": "string"
				}
			],
			"stateMutability": "view",
			"type": "function"
		},
		{
			"inputs": [],
			"name": "owner",
			"outputs": [
				{
					"internalType": "address",
					"name": "",
					"type": "address"
				}
			],
			"stateMutability": "view",
			"type": "function"
		},
		{
			"inputs": [
				{
					"internalType": "uint256",
					"name": "tokenId",
					"type": "uint256"
				}
			],
			"name": "ownerOf",
			"outputs": [
				{
					"internalType": "address",
					"name": "",
					"type": "address"
				}
			],
			"stateMutability": "view",
			"type": "function"
		},
		{
			"inputs": [
				{
					"internalType": "address",
					"name": "_userAddress",
					"type": "address"
				}
			],
			"name": "removeFrombrightlist",
			"outputs": [],
			"stateMutability": "nonpayable",
			"type": "function"
		},
		{
			"inputs": [],
			"name": "renounceOwnership",
			"outputs": [],
			"stateMutability": "nonpayable",
			"type": "function"
		},
		{
			"inputs": [
				{
					"internalType": "string",
					"name": "_description",
					"type": "string"
				},
				{
					"internalType": "string",
					"name": "_contractData",
					"type": "string"
				}
			],
			"name": "safeMint",
			"outputs": [],
			"stateMutability": "nonpayable",
			"type": "function"
		},
		{
			"inputs": [
				{
					"internalType": "address",
					"name": "from",
					"type": "address"
				},
				{
					"internalType": "address",
					"name": "to",
					"type": "address"
				},
				{
					"internalType": "uint256",
					"name": "tokenId",
					"type": "uint256"
				}
			],
			"name": "safeTransferFrom",
			"outputs": [],
			"stateMutability": "nonpayable",
			"type": "function"
		},
		{
			"inputs": [
				{
					"internalType": "address",
					"name": "from",
					"type": "address"
				},
				{
					"internalType": "address",
					"name": "to",
					"type": "address"
				},
				{
					"internalType": "uint256",
					"name": "tokenId",
					"type": "uint256"
				},
				{
					"internalType": "bytes",
					"name": "data",
					"type": "bytes"
				}
			],
			"name": "safeTransferFrom",
			"outputs": [],
			"stateMutability": "nonpayable",
			"type": "function"
		},
		{
			"inputs": [
				{
					"internalType": "address",
					"name": "operator",
					"type": "address"
				},
				{
					"internalType": "bool",
					"name": "approved",
					"type": "bool"
				}
			],
			"name": "setApprovalForAll",
			"outputs": [],
			"stateMutability": "nonpayable",
			"type": "function"
		},
		{
			"inputs": [
				{
					"internalType": "bytes4",
					"name": "interfaceId",
					"type": "bytes4"
				}
			],
			"name": "supportsInterface",
			"outputs": [
				{
					"internalType": "bool",
					"name": "",
					"type": "bool"
				}
			],
			"stateMutability": "view",
			"type": "function"
		},
		{
			"inputs": [],
			"name": "symbol",
			"outputs": [
				{
					"internalType": "string",
					"name": "",
					"type": "string"
				}
			],
			"stateMutability": "view",
			"type": "function"
		},
		{
			"inputs": [
				{
					"internalType": "uint256",
					"name": "tokenId",
					"type": "uint256"
				}
			],
			"name": "tokenURI",
			"outputs": [
				{
					"internalType": "string",
					"name": "",
					"type": "string"
				}
			],
			"stateMutability": "view",
			"type": "function"
		},
		{
			"inputs": [
				{
					"internalType": "address",
					"name": "from",
					"type": "address"
				},
				{
					"internalType": "address",
					"name": "to",
					"type": "address"
				},
				{
					"internalType": "uint256",
					"name": "tokenId",
					"type": "uint256"
				}
			],
			"name": "transferFrom",
			"outputs": [],
			"stateMutability": "nonpayable",
			"type": "function"
		},
		{
			"inputs": [
				{
					"internalType": "address",
					"name": "newOwner",
					"type": "address"
				}
			],
			"name": "transferOwnership",
			"outputs": [],
			"stateMutability": "nonpayable",
			"type": "function"
		}
	],
	"bytecode": "0x60806040523480156200001157600080fd5b506040518060400160405280600e81526020017f49505f4e4654436f6e74726163740000000000000000000000000000000000008152506040518060400160405280600681526020017f49502d4e465400000000000000000000000000000000000000000000000000008152506200009e62000092620000f860201b60201c565b6200010060201b60201c565b8160019080519060200190620000b69291906200032c565b508060029080519060200190620000cf9291906200032c565b505050620000f2620000e6620000f860201b60201c565b620001c460201b60201c565b620004c4565b600033905090565b60008060009054906101000a900473ffffffffffffffffffffffffffffffffffffffff169050816000806101000a81548173ffffffffffffffffffffffffffffffffffffffff021916908373ffffffffffffffffffffffffffffffffffffffff1602179055508173ffffffffffffffffffffffffffffffffffffffff168173ffffffffffffffffffffffffffffffffffffffff167f8be0079c531659141344cd1fd0a4f28419497f9722a3daafe3b4186f6b6457e060405160405180910390a35050565b620001d46200027260201b60201c565b6001600960008373ffffffffffffffffffffffffffffffffffffffff1673ffffffffffffffffffffffffffffffffffffffff16815260200190815260200160002060006101000a81548160ff0219169083151502179055508073ffffffffffffffffffffffffffffffffffffffff167f6adffd5c93085d835dac6f3b40adf7c242ca4b3284048d20c3d8a501748dc97360405160405180910390a250565b62000282620000f860201b60201c565b73ffffffffffffffffffffffffffffffffffffffff16620002a86200030360201b60201c565b73ffffffffffffffffffffffffffffffffffffffff161462000301576040517f08c379a0000000000000000000000000000000000000000000000000000000008152600401620002f8906200043d565b60405180910390fd5b565b60008060009054906101000a900473ffffffffffffffffffffffffffffffffffffffff16905090565b8280546200033a906200048e565b90600052602060002090601f0160209004810192826200035e5760008555620003aa565b82601f106200037957805160ff1916838001178555620003aa565b82800160010185558215620003aa579182015b82811115620003a95782518255916020019190600101906200038c565b5b509050620003b99190620003bd565b5090565b5b80821115620003d8576000816000905550600101620003be565b5090565b600082825260208201905092915050565b7f4f776e61626c653a2063616c6c6572206973206e6f7420746865206f776e6572600082015250565b600062000425602083620003dc565b91506200043282620003ed565b602082019050919050565b60006020820190508181036000830152620004588162000416565b9050919050565b7f4e487b7100000000000000000000000000000000000000000000000000000000600052602260045260246000fd5b60006002820490506001821680620004a757607f821691505b60208210811415620004be57620004bd6200045f565b5b50919050565b61383c80620004d46000396000f3fe608060405234801561001057600080fd5b50600436106101375760003560e01c8063715018a6116100b8578063ace910321161007c578063ace910321461034d578063b88d4fde14610369578063c87b56dd14610385578063e985e9c5146103b5578063f2fde38b146103e5578063fe8579341461040157610137565b8063715018a6146102ba5780638c210975146102c45780638da5cb5b146102f557806395d89b4114610313578063a22cb4651461033157610137565b806342842e0e116100ff57806342842e0e146101f257806343c9be501461020e5780634fa1f7ae1461023e5780636352211e1461025a57806370a082311461028a57610137565b806301ffc9a71461013c57806306fdde031461016c578063081812fc1461018a578063095ea7b3146101ba57806323b872dd146101d6575b600080fd5b610156600480360381019061015191906123e3565b61041d565b604051610163919061242b565b60405180910390f35b6101746104ff565b60405161018191906124df565b60405180910390f35b6101a4600480360381019061019f9190612537565b610591565b6040516101b191906125a5565b60405180910390f35b6101d460048036038101906101cf91906125ec565b6105d7565b005b6101f060048036038101906101eb919061262c565b6106ef565b005b61020c6004803603810190610207919061262c565b61074f565b005b6102286004803603810190610223919061267f565b61076f565b604051610235919061242b565b60405180910390f35b610258600480360381019061025391906127e1565b61078f565b005b610274600480360381019061026f9190612537565b610947565b60405161028191906125a5565b60405180910390f35b6102a4600480360381019061029f919061267f565b6109ce565b6040516102b19190612868565b60405180910390f35b6102c2610a86565b005b6102de60048036038101906102d99190612537565b610a9a565b6040516102ec929190612883565b60405180910390f35b6102fd610bce565b60405161030a91906125a5565b60405180910390f35b61031b610bf7565b60405161032891906124df565b60405180910390f35b61034b600480360381019061034691906128e6565b610c89565b005b6103676004803603810190610362919061267f565b610c9f565b005b610383600480360381019061037e91906129c7565b610d3c565b005b61039f600480360381019061039a9190612537565b610d9e565b6040516103ac91906124df565b60405180910390f35b6103cf60048036038101906103ca9190612a4a565b610f58565b6040516103dc919061242b565b60405180910390f35b6103ff60048036038101906103fa919061267f565b610fec565b005b61041b6004803603810190610416919061267f565b611070565b005b60007f80ac58cd000000000000000000000000000000000000000000000000000000007bffffffffffffffffffffffffffffffffffffffffffffffffffffffff1916827bffffffffffffffffffffffffffffffffffffffffffffffffffffffff191614806104e857507f5b5e139f000000000000000000000000000000000000000000000000000000007bffffffffffffffffffffffffffffffffffffffffffffffffffffffff1916827bffffffffffffffffffffffffffffffffffffffffffffffffffffffff1916145b806104f857506104f782611116565b5b9050919050565b60606001805461050e90612ab9565b80601f016020809104026020016040519081016040528092919081815260200182805461053a90612ab9565b80156105875780601f1061055c57610100808354040283529160200191610587565b820191906000526020600020905b81548152906001019060200180831161056a57829003601f168201915b5050505050905090565b600061059c82611180565b6005600083815260200190815260200160002060009054906101000a900473ffffffffffffffffffffffffffffffffffffffff169050919050565b60006105e282610947565b90508073ffffffffffffffffffffffffffffffffffffffff168373ffffffffffffffffffffffffffffffffffffffff161415610653576040517f08c379a000000000000000000000000000000000000000000000000000000000815260040161064a90612b5d565b60405180910390fd5b8073ffffffffffffffffffffffffffffffffffffffff166106726111cb565b73ffffffffffffffffffffffffffffffffffffffff1614806106a157506106a08161069b6111cb565b610f58565b5b6106e0576040517f08c379a00000000000000000000000000000000000000000000000000000000081526004016106d790612bef565b60405180910390fd5b6106ea83836111d3565b505050565b6107006106fa6111cb565b8261128c565b61073f576040517f08c379a000000000000000000000000000000000000000000000000000000000815260040161073690612c81565b60405180910390fd5b61074a838383611321565b505050565b61076a83838360405180602001604052806000815250610d3c565b505050565b60096020528060005260406000206000915054906101000a900460ff1681565b6009600061079b6111cb565b73ffffffffffffffffffffffffffffffffffffffff1673ffffffffffffffffffffffffffffffffffffffff16815260200190815260200160002060009054906101000a900460ff16610822576040517f08c379a000000000000000000000000000000000000000000000000000000000815260040161081990612ced565b60405180910390fd5b600061082e600861161b565b905082600a6000838152602001908152602001600020600101908051906020019061085a9291906122d4565b5081600a600083815260200190815260200160002060000190805190602001906108859291906122d4565b506108906008611629565b6009600061089c6111cb565b73ffffffffffffffffffffffffffffffffffffffff1673ffffffffffffffffffffffffffffffffffffffff16815260200190815260200160002060006101000a81549060ff02191690556108f76108f16111cb565b8261163f565b806109006111cb565b73ffffffffffffffffffffffffffffffffffffffff167f275a11e033325e9b28a23131fcc7e243a49bb38beb686051976dd8c8899d9a3c60405160405180910390a3505050565b6000806109538361165d565b9050600073ffffffffffffffffffffffffffffffffffffffff168173ffffffffffffffffffffffffffffffffffffffff1614156109c5576040517f08c379a00000000000000000000000000000000000000000000000000000000081526004016109bc90612d59565b60405180910390fd5b80915050919050565b60008073ffffffffffffffffffffffffffffffffffffffff168273ffffffffffffffffffffffffffffffffffffffff161415610a3f576040517f08c379a0000000000000000000000000000000000000000000000000000000008152600401610a3690612deb565b60405180910390fd5b600460008373ffffffffffffffffffffffffffffffffffffffff1673ffffffffffffffffffffffffffffffffffffffff168152602001908152602001600020549050919050565b610a8e61169a565b610a986000611718565b565b600a602052806000526040600020600091509050806000018054610abd90612ab9565b80601f0160208091040260200160405190810160405280929190818152602001828054610ae990612ab9565b8015610b365780601f10610b0b57610100808354040283529160200191610b36565b820191906000526020600020905b815481529060010190602001808311610b1957829003601f168201915b505050505090806001018054610b4b90612ab9565b80601f0160208091040260200160405190810160405280929190818152602001828054610b7790612ab9565b8015610bc45780601f10610b9957610100808354040283529160200191610bc4565b820191906000526020600020905b815481529060010190602001808311610ba757829003601f168201915b5050505050905082565b60008060009054906101000a900473ffffffffffffffffffffffffffffffffffffffff16905090565b606060028054610c0690612ab9565b80601f0160208091040260200160405190810160405280929190818152602001828054610c3290612ab9565b8015610c7f5780601f10610c5457610100808354040283529160200191610c7f565b820191906000526020600020905b815481529060010190602001808311610c6257829003601f168201915b5050505050905090565b610c9b610c946111cb565b83836117dc565b5050565b610ca761169a565b600960008273ffffffffffffffffffffffffffffffffffffffff1673ffffffffffffffffffffffffffffffffffffffff16815260200190815260200160002060006101000a81549060ff02191690558073ffffffffffffffffffffffffffffffffffffffff167f8e768d7a5530d1f68e76ded405597f5ab4e340da31733f8704353e0b62b911f860405160405180910390a250565b610d4d610d476111cb565b8361128c565b610d8c576040517f08c379a0000000000000000000000000000000000000000000000000000000008152600401610d8390612c81565b60405180910390fd5b610d9884848484611949565b50505050565b6060610da982611180565b6000600a6000848152602001908152602001600020604051806040016040529081600082018054610dd990612ab9565b80601f0160208091040260200160405190810160405280929190818152602001828054610e0590612ab9565b8015610e525780601f10610e2757610100808354040283529160200191610e52565b820191906000526020600020905b815481529060010190602001808311610e3557829003601f168201915b50505050508152602001600182018054610e6b90612ab9565b80601f0160208091040260200160405190810160405280929190818152602001828054610e9790612ab9565b8015610ee45780601f10610eb957610100808354040283529160200191610ee4565b820191906000526020600020905b815481529060010190602001808311610ec757829003601f168201915b50505050508152505090506000610efa846119a5565b82602001518360000151604051602001610f1693929190613081565b6040516020818303038152906040529050610f3081611a7d565b604051602001610f409190613156565b60405160208183030381529060405292505050919050565b6000600660008473ffffffffffffffffffffffffffffffffffffffff1673ffffffffffffffffffffffffffffffffffffffff16815260200190815260200160002060008373ffffffffffffffffffffffffffffffffffffffff1673ffffffffffffffffffffffffffffffffffffffff16815260200190815260200160002060009054906101000a900460ff16905092915050565b610ff461169a565b600073ffffffffffffffffffffffffffffffffffffffff168173ffffffffffffffffffffffffffffffffffffffff161415611064576040517f08c379a000000000000000000000000000000000000000000000000000000000815260040161105b906131ea565b60405180910390fd5b61106d81611718565b50565b61107861169a565b6001600960008373ffffffffffffffffffffffffffffffffffffffff1673ffffffffffffffffffffffffffffffffffffffff16815260200190815260200160002060006101000a81548160ff0219169083151502179055508073ffffffffffffffffffffffffffffffffffffffff167f6adffd5c93085d835dac6f3b40adf7c242ca4b3284048d20c3d8a501748dc97360405160405180910390a250565b60007f01ffc9a7000000000000000000000000000000000000000000000000000000007bffffffffffffffffffffffffffffffffffffffffffffffffffffffff1916827bffffffffffffffffffffffffffffffffffffffffffffffffffffffff1916149050919050565b61118981611be1565b6111c8576040517f08c379a00000000000000000000000000000000000000000000000000000000081526004016111bf90612d59565b60405180910390fd5b50565b600033905090565b816005600083815260200190815260200160002060006101000a81548173ffffffffffffffffffffffffffffffffffffffff021916908373ffffffffffffffffffffffffffffffffffffffff160217905550808273ffffffffffffffffffffffffffffffffffffffff1661124683610947565b73ffffffffffffffffffffffffffffffffffffffff167f8c5be1e5ebec7d5bd14f71427d1e84f3dd0314c0f7b2291e5b200ac8c7c3b92560405160405180910390a45050565b60008061129883610947565b90508073ffffffffffffffffffffffffffffffffffffffff168473ffffffffffffffffffffffffffffffffffffffff1614806112da57506112d98185610f58565b5b8061131857508373ffffffffffffffffffffffffffffffffffffffff1661130084610591565b73ffffffffffffffffffffffffffffffffffffffff16145b91505092915050565b8273ffffffffffffffffffffffffffffffffffffffff1661134182610947565b73ffffffffffffffffffffffffffffffffffffffff1614611397576040517f08c379a000000000000000000000000000000000000000000000000000000000815260040161138e9061327c565b60405180910390fd5b600073ffffffffffffffffffffffffffffffffffffffff168273ffffffffffffffffffffffffffffffffffffffff161415611407576040517f08c379a00000000000000000000000000000000000000000000000000000000081526004016113fe9061330e565b60405180910390fd5b6114148383836001611c22565b8273ffffffffffffffffffffffffffffffffffffffff1661143482610947565b73ffffffffffffffffffffffffffffffffffffffff161461148a576040517f08c379a00000000000000000000000000000000000000000000000000000000081526004016114819061327c565b60405180910390fd5b6005600082815260200190815260200160002060006101000a81549073ffffffffffffffffffffffffffffffffffffffff02191690556001600460008573ffffffffffffffffffffffffffffffffffffffff1673ffffffffffffffffffffffffffffffffffffffff168152602001908152602001600020600082825403925050819055506001600460008473ffffffffffffffffffffffffffffffffffffffff1673ffffffffffffffffffffffffffffffffffffffff16815260200190815260200160002060008282540192505081905550816003600083815260200190815260200160002060006101000a81548173ffffffffffffffffffffffffffffffffffffffff021916908373ffffffffffffffffffffffffffffffffffffffff160217905550808273ffffffffffffffffffffffffffffffffffffffff168473ffffffffffffffffffffffffffffffffffffffff167fddf252ad1be2c89b69c2b068fc378daa952ba7f163c4a11628f55a4df523b3ef60405160405180910390a46116168383836001611d48565b505050565b600081600001549050919050565b6001816000016000828254019250508190555050565b611659828260405180602001604052806000815250611d4e565b5050565b60006003600083815260200190815260200160002060009054906101000a900473ffffffffffffffffffffffffffffffffffffffff169050919050565b6116a26111cb565b73ffffffffffffffffffffffffffffffffffffffff166116c0610bce565b73ffffffffffffffffffffffffffffffffffffffff1614611716576040517f08c379a000000000000000000000000000000000000000000000000000000000815260040161170d9061337a565b60405180910390fd5b565b60008060009054906101000a900473ffffffffffffffffffffffffffffffffffffffff169050816000806101000a81548173ffffffffffffffffffffffffffffffffffffffff021916908373ffffffffffffffffffffffffffffffffffffffff1602179055508173ffffffffffffffffffffffffffffffffffffffff168173ffffffffffffffffffffffffffffffffffffffff167f8be0079c531659141344cd1fd0a4f28419497f9722a3daafe3b4186f6b6457e060405160405180910390a35050565b8173ffffffffffffffffffffffffffffffffffffffff168373ffffffffffffffffffffffffffffffffffffffff16141561184b576040517f08c379a0000000000000000000000000000000000000000000000000000000008152600401611842906133e6565b60405180910390fd5b80600660008573ffffffffffffffffffffffffffffffffffffffff1673ffffffffffffffffffffffffffffffffffffffff16815260200190815260200160002060008473ffffffffffffffffffffffffffffffffffffffff1673ffffffffffffffffffffffffffffffffffffffff16815260200190815260200160002060006101000a81548160ff0219169083151502179055508173ffffffffffffffffffffffffffffffffffffffff168373ffffffffffffffffffffffffffffffffffffffff167f17307eab39ab6107e8899845ad3d59bd9653f200f220920489ca2b5937696c318360405161193c919061242b565b60405180910390a3505050565b611954848484611321565b61196084848484611da9565b61199f576040517f08c379a000000000000000000000000000000000000000000000000000000000815260040161199690613478565b60405180910390fd5b50505050565b6060600060016119b484611f40565b01905060008167ffffffffffffffff8111156119d3576119d26126b6565b5b6040519080825280601f01601f191660200182016040528015611a055781602001600182028036833780820191505090505b509050600082602001820190505b600115611a72578080600190039150507f3031323334353637383961626364656600000000000000000000000000000000600a86061a8153600a8581611a5c57611a5b613498565b5b0494506000851415611a6d57611a72565b611a13565b819350505050919050565b6060600082511415611aa057604051806020016040528060008152509050611bdc565b60006040518060600160405280604081526020016137c76040913990506000600360028551611acf91906134f6565b611ad9919061354c565b6004611ae5919061357d565b67ffffffffffffffff811115611afe57611afd6126b6565b5b6040519080825280601f01601f191660200182016040528015611b305781602001600182028036833780820191505090505b509050600182016020820185865187015b80821015611b9c576003820191508151603f8160121c168501518453600184019350603f81600c1c168501518453600184019350603f8160061c168501518453600184019350603f8116850151845360018401935050611b41565b5050600386510660018114611bb85760028114611bcb57611bd3565b603d6001830353603d6002830353611bd3565b603d60018303535b50505080925050505b919050565b60008073ffffffffffffffffffffffffffffffffffffffff16611c038361165d565b73ffffffffffffffffffffffffffffffffffffffff1614159050919050565b6001811115611d4257600073ffffffffffffffffffffffffffffffffffffffff168473ffffffffffffffffffffffffffffffffffffffff1614611cb65780600460008673ffffffffffffffffffffffffffffffffffffffff1673ffffffffffffffffffffffffffffffffffffffff1681526020019081526020016000206000828254611cae91906135d7565b925050819055505b600073ffffffffffffffffffffffffffffffffffffffff168373ffffffffffffffffffffffffffffffffffffffff1614611d415780600460008573ffffffffffffffffffffffffffffffffffffffff1673ffffffffffffffffffffffffffffffffffffffff1681526020019081526020016000206000828254611d3991906134f6565b925050819055505b5b50505050565b50505050565b611d588383612093565b611d656000848484611da9565b611da4576040517f08c379a0000000000000000000000000000000000000000000000000000000008152600401611d9b90613478565b60405180910390fd5b505050565b6000611dca8473ffffffffffffffffffffffffffffffffffffffff166122b1565b15611f33578373ffffffffffffffffffffffffffffffffffffffff1663150b7a02611df36111cb565b8786866040518563ffffffff1660e01b8152600401611e159493929190613660565b602060405180830381600087803b158015611e2f57600080fd5b505af1925050508015611e6057506040513d601f19601f82011682018060405250810190611e5d91906136c1565b60015b611ee3573d8060008114611e90576040519150601f19603f3d011682016040523d82523d6000602084013e611e95565b606091505b50600081511415611edb576040517f08c379a0000000000000000000000000000000000000000000000000000000008152600401611ed290613478565b60405180910390fd5b805181602001fd5b63150b7a0260e01b7bffffffffffffffffffffffffffffffffffffffffffffffffffffffff1916817bffffffffffffffffffffffffffffffffffffffffffffffffffffffff191614915050611f38565b600190505b949350505050565b600080600090507a184f03e93ff9f4daa797ed6e38ed64bf6a1f0100000000000000008310611f9e577a184f03e93ff9f4daa797ed6e38ed64bf6a1f0100000000000000008381611f9457611f93613498565b5b0492506040810190505b6d04ee2d6d415b85acef81000000008310611fdb576d04ee2d6d415b85acef81000000008381611fd157611fd0613498565b5b0492506020810190505b662386f26fc10000831061200a57662386f26fc10000838161200057611fff613498565b5b0492506010810190505b6305f5e1008310612033576305f5e100838161202957612028613498565b5b0492506008810190505b612710831061205857612710838161204e5761204d613498565b5b0492506004810190505b6064831061207b576064838161207157612070613498565b5b0492506002810190505b600a831061208a576001810190505b80915050919050565b600073ffffffffffffffffffffffffffffffffffffffff168273ffffffffffffffffffffffffffffffffffffffff161415612103576040517f08c379a00000000000000000000000000000000000000000000000000000000081526004016120fa9061373a565b60405180910390fd5b61210c81611be1565b1561214c576040517f08c379a0000000000000000000000000000000000000000000000000000000008152600401612143906137a6565b60405180910390fd5b61215a600083836001611c22565b61216381611be1565b156121a3576040517f08c379a000000000000000000000000000000000000000000000000000000000815260040161219a906137a6565b60405180910390fd5b6001600460008473ffffffffffffffffffffffffffffffffffffffff1673ffffffffffffffffffffffffffffffffffffffff16815260200190815260200160002060008282540192505081905550816003600083815260200190815260200160002060006101000a81548173ffffffffffffffffffffffffffffffffffffffff021916908373ffffffffffffffffffffffffffffffffffffffff160217905550808273ffffffffffffffffffffffffffffffffffffffff16600073ffffffffffffffffffffffffffffffffffffffff167fddf252ad1be2c89b69c2b068fc378daa952ba7f163c4a11628f55a4df523b3ef60405160405180910390a46122ad600083836001611d48565b5050565b6000808273ffffffffffffffffffffffffffffffffffffffff163b119050919050565b8280546122e090612ab9565b90600052602060002090601f0160209004810192826123025760008555612349565b82601f1061231b57805160ff1916838001178555612349565b82800160010185558215612349579182015b8281111561234857825182559160200191906001019061232d565b5b509050612356919061235a565b5090565b5b8082111561237357600081600090555060010161235b565b5090565b6000604051905090565b600080fd5b600080fd5b60007fffffffff0000000000000000000000000000000000000000000000000000000082169050919050565b6123c08161238b565b81146123cb57600080fd5b50565b6000813590506123dd816123b7565b92915050565b6000602082840312156123f9576123f8612381565b5b6000612407848285016123ce565b91505092915050565b60008115159050919050565b61242581612410565b82525050565b6000602082019050612440600083018461241c565b92915050565b600081519050919050565b600082825260208201905092915050565b60005b83811015612480578082015181840152602081019050612465565b8381111561248f576000848401525b50505050565b6000601f19601f8301169050919050565b60006124b182612446565b6124bb8185612451565b93506124cb818560208601612462565b6124d481612495565b840191505092915050565b600060208201905081810360008301526124f981846124a6565b905092915050565b6000819050919050565b61251481612501565b811461251f57600080fd5b50565b6000813590506125318161250b565b92915050565b60006020828403121561254d5761254c612381565b5b600061255b84828501612522565b91505092915050565b600073ffffffffffffffffffffffffffffffffffffffff82169050919050565b600061258f82612564565b9050919050565b61259f81612584565b82525050565b60006020820190506125ba6000830184612596565b92915050565b6125c981612584565b81146125d457600080fd5b50565b6000813590506125e6816125c0565b92915050565b6000806040838503121561260357612602612381565b5b6000612611858286016125d7565b925050602061262285828601612522565b9150509250929050565b60008060006060848603121561264557612644612381565b5b6000612653868287016125d7565b9350506020612664868287016125d7565b925050604061267586828701612522565b9150509250925092565b60006020828403121561269557612694612381565b5b60006126a3848285016125d7565b91505092915050565b600080fd5b600080fd5b7f4e487b7100000000000000000000000000000000000000000000000000000000600052604160045260246000fd5b6126ee82612495565b810181811067ffffffffffffffff8211171561270d5761270c6126b6565b5b80604052505050565b6000612720612377565b905061272c82826126e5565b919050565b600067ffffffffffffffff82111561274c5761274b6126b6565b5b61275582612495565b9050602081019050919050565b82818337600083830152505050565b600061278461277f84612731565b612716565b9050828152602081018484840111156127a05761279f6126b1565b5b6127ab848285612762565b509392505050565b600082601f8301126127c8576127c76126ac565b5b81356127d8848260208601612771565b91505092915050565b600080604083850312156127f8576127f7612381565b5b600083013567ffffffffffffffff81111561281657612815612386565b5b612822858286016127b3565b925050602083013567ffffffffffffffff81111561284357612842612386565b5b61284f858286016127b3565b9150509250929050565b61286281612501565b82525050565b600060208201905061287d6000830184612859565b92915050565b6000604082019050818103600083015261289d81856124a6565b905081810360208301526128b181846124a6565b90509392505050565b6128c381612410565b81146128ce57600080fd5b50565b6000813590506128e0816128ba565b92915050565b600080604083850312156128fd576128fc612381565b5b600061290b858286016125d7565b925050602061291c858286016128d1565b9150509250929050565b600067ffffffffffffffff821115612941576129406126b6565b5b61294a82612495565b9050602081019050919050565b600061296a61296584612926565b612716565b905082815260208101848484011115612986576129856126b1565b5b612991848285612762565b509392505050565b600082601f8301126129ae576129ad6126ac565b5b81356129be848260208601612957565b91505092915050565b600080600080608085870312156129e1576129e0612381565b5b60006129ef878288016125d7565b9450506020612a00878288016125d7565b9350506040612a1187828801612522565b925050606085013567ffffffffffffffff811115612a3257612a31612386565b5b612a3e87828801612999565b91505092959194509250565b60008060408385031215612a6157612a60612381565b5b6000612a6f858286016125d7565b9250506020612a80858286016125d7565b9150509250929050565b7f4e487b7100000000000000000000000000000000000000000000000000000000600052602260045260246000fd5b60006002820490506001821680612ad157607f821691505b60208210811415612ae557612ae4612a8a565b5b50919050565b7f4552433732313a20617070726f76616c20746f2063757272656e74206f776e6560008201527f7200000000000000000000000000000000000000000000000000000000000000602082015250565b6000612b47602183612451565b9150612b5282612aeb565b604082019050919050565b60006020820190508181036000830152612b7681612b3a565b9050919050565b7f4552433732313a20617070726f76652063616c6c6572206973206e6f7420746f60008201527f6b656e206f776e6572206f7220617070726f76656420666f7220616c6c000000602082015250565b6000612bd9603d83612451565b9150612be482612b7d565b604082019050919050565b60006020820190508181036000830152612c0881612bcc565b9050919050565b7f4552433732313a2063616c6c6572206973206e6f7420746f6b656e206f776e6560008201527f72206f7220617070726f76656400000000000000000000000000000000000000602082015250565b6000612c6b602d83612451565b9150612c7682612c0f565b604082019050919050565b60006020820190508181036000830152612c9a81612c5e565b9050919050565b7f4e4f545f494e5f4252494748544c495354000000000000000000000000000000600082015250565b6000612cd7601183612451565b9150612ce282612ca1565b602082019050919050565b60006020820190508181036000830152612d0681612cca565b9050919050565b7f4552433732313a20696e76616c696420746f6b656e2049440000000000000000600082015250565b6000612d43601883612451565b9150612d4e82612d0d565b602082019050919050565b60006020820190508181036000830152612d7281612d36565b9050919050565b7f4552433732313a2061646472657373207a65726f206973206e6f74206120766160008201527f6c6964206f776e65720000000000000000000000000000000000000000000000602082015250565b6000612dd5602983612451565b9150612de082612d79565b604082019050919050565b60006020820190508181036000830152612e0481612dc8565b9050919050565b600081905092915050565b7f7b00000000000000000000000000000000000000000000000000000000000000600082015250565b6000612e4c600183612e0b565b9150612e5782612e16565b600182019050919050565b7f226e616d65223a2022746f6b656e202300000000000000000000000000000000600082015250565b6000612e98601083612e0b565b9150612ea382612e62565b601082019050919050565b6000612eb982612446565b612ec38185612e0b565b9350612ed3818560208601612462565b80840191505092915050565b7f222c000000000000000000000000000000000000000000000000000000000000600082015250565b6000612f15600283612e0b565b9150612f2082612edf565b600282019050919050565b7f226465736372697074696f6e223a20227468697320746f6b656e2063616e206360008201527f7572652000000000000000000000000000000000000000000000000000000000602082015250565b6000612f87602483612e0b565b9150612f9282612f2b565b602482019050919050565b7f22636f6e747261637444617461223a2022000000000000000000000000000000600082015250565b6000612fd3601183612e0b565b9150612fde82612f9d565b601182019050919050565b7f2200000000000000000000000000000000000000000000000000000000000000600082015250565b600061301f600183612e0b565b915061302a82612fe9565b600182019050919050565b7f7d00000000000000000000000000000000000000000000000000000000000000600082015250565b600061306b600183612e0b565b915061307682613035565b600182019050919050565b600061308c82612e3f565b915061309782612e8b565b91506130a38286612eae565b91506130ae82612f08565b91506130b982612f7a565b91506130c58285612eae565b91506130d082612f08565b91506130db82612fc6565b91506130e78284612eae565b91506130f282613012565b91506130fd8261305e565b9150819050949350505050565b7f646174613a6170706c69636174696f6e2f6a736f6e3b6261736536342c000000600082015250565b6000613140601d83612e0b565b915061314b8261310a565b601d82019050919050565b600061316182613133565b915061316d8284612eae565b915081905092915050565b7f4f776e61626c653a206e6577206f776e657220697320746865207a65726f206160008201527f6464726573730000000000000000000000000000000000000000000000000000602082015250565b60006131d4602683612451565b91506131df82613178565b604082019050919050565b60006020820190508181036000830152613203816131c7565b9050919050565b7f4552433732313a207472616e736665722066726f6d20696e636f72726563742060008201527f6f776e6572000000000000000000000000000000000000000000000000000000602082015250565b6000613266602583612451565b91506132718261320a565b604082019050919050565b6000602082019050818103600083015261329581613259565b9050919050565b7f4552433732313a207472616e7366657220746f20746865207a65726f2061646460008201527f7265737300000000000000000000000000000000000000000000000000000000602082015250565b60006132f8602483612451565b91506133038261329c565b604082019050919050565b60006020820190508181036000830152613327816132eb565b9050919050565b7f4f776e61626c653a2063616c6c6572206973206e6f7420746865206f776e6572600082015250565b6000613364602083612451565b915061336f8261332e565b602082019050919050565b6000602082019050818103600083015261339381613357565b9050919050565b7f4552433732313a20617070726f766520746f2063616c6c657200000000000000600082015250565b60006133d0601983612451565b91506133db8261339a565b602082019050919050565b600060208201905081810360008301526133ff816133c3565b9050919050565b7f4552433732313a207472616e7366657220746f206e6f6e20455243373231526560008201527f63656976657220696d706c656d656e7465720000000000000000000000000000602082015250565b6000613462603283612451565b915061346d82613406565b604082019050919050565b6000602082019050818103600083015261349181613455565b9050919050565b7f4e487b7100000000000000000000000000000000000000000000000000000000600052601260045260246000fd5b7f4e487b7100000000000000000000000000000000000000000000000000000000600052601160045260246000fd5b600061350182612501565b915061350c83612501565b9250827fffffffffffffffffffffffffffffffffffffffffffffffffffffffffffffffff03821115613541576135406134c7565b5b828201905092915050565b600061355782612501565b915061356283612501565b92508261357257613571613498565b5b828204905092915050565b600061358882612501565b915061359383612501565b9250817fffffffffffffffffffffffffffffffffffffffffffffffffffffffffffffffff04831182151516156135cc576135cb6134c7565b5b828202905092915050565b60006135e282612501565b91506135ed83612501565b925082821015613600576135ff6134c7565b5b828203905092915050565b600081519050919050565b600082825260208201905092915050565b60006136328261360b565b61363c8185613616565b935061364c818560208601612462565b61365581612495565b840191505092915050565b60006080820190506136756000830187612596565b6136826020830186612596565b61368f6040830185612859565b81810360608301526136a18184613627565b905095945050505050565b6000815190506136bb816123b7565b92915050565b6000602082840312156136d7576136d6612381565b5b60006136e5848285016136ac565b91505092915050565b7f4552433732313a206d696e7420746f20746865207a65726f2061646472657373600082015250565b6000613724602083612451565b915061372f826136ee565b602082019050919050565b6000602082019050818103600083015261375381613717565b9050919050565b7f4552433732313a20746f6b656e20616c7265616479206d696e74656400000000600082015250565b6000613790601c83612451565b915061379b8261375a565b602082019050919050565b600060208201905081810360008301526137bf81613783565b905091905056fe4142434445464748494a4b4c4d4e4f505152535455565758595a6162636465666768696a6b6c6d6e6f707172737475767778797a303132333435363738392b2fa26469706673582212209db73558755acd0675ecb7ffd1380f62cb4e0b805d818d1610f4335d5161669864736f6c63430008090033",
	"linkReferences": {},
	"deployedLinkReferences": {}
}